{"project/contracts/ReasoningReceiptRegistry.sol":{"ReasoningReceiptRegistry":{"abi":[{"anonymous":false,"inputs":[{"indexed":true,"internalType":"uint256","name":"receiptId","type":"uint256"},{"indexed":false,"internalType":"enum ReasoningReceiptRegistry.LifecycleState","name":"lifecycleState","type":"uint8"}],"name":"LifecycleUpdated","type":"event"},{"anonymous":false,"inputs":[{"indexed":true,"internalType":"uint256","name":"receiptId","type":"uint256"},{"indexed":false,"internalType":"string","name":"agentId","type":"string"},{"indexed":true,"internalType":"uint256","name":"marketId","type":"uint256"},{"indexed":true,"internalType":"bytes32","name":"reasoningHash","type":"bytes32"},{"indexed":false,"internalType":"uint16","name":"integrityScore","type":"uint16"},{"indexed":false,"internalType":"string","name":"decision","type":"string"},{"indexed":false,"internalType":"address","name":"writer","type":"address"}],"name":"ReceiptWritten","type":"event"},{"inputs":[{"internalType":"uint256","name":"receiptId","type":"uint256"}],"name":"getReceipt","outputs":[{"components":[{"internalType":"uint256","name":"receiptId","type":"uint256"},{"internalType":"string","name":"agentId","type":"string"},{"internalType":"uint256","name":"marketId","type":"uint256"},{"internalType":"bytes32","name":"signalHash","type":"bytes32"},{"internalType":"bytes32","name":"reasoningHash","type":"bytes32"},{"internalType":"uint16","name":"integrityScore","type":"uint16"},{"internalType":"uint16","name":"agentProbability","type":"uint16"},{"internalType":"uint16","name":"marketProbability","type":"uint16"},{"internalType":"int256","name":"edgeBps","type":"int256"},{"internalType":"uint256","name":"suggestedUsdcAmount","type":"uint256"},{"internalType":"string","name":"decision","type":"string"},{"internalType":"enum ReasoningReceiptRegistry.LifecycleState","name":"lifecycleState","type":"uint8"},{"internalType":"uint256","name":"timestamp","type":"uint256"},{"internalType":"address","name":"writer","type":"address"}],"internalType":"struct ReasoningReceiptRegistry.Receipt","name":"","type":"tuple"}],"stateMutability":"view","type":"function"},{"inputs":[{"internalType":"string","name":"agentId","type":"string"}],"name":"getReceiptsByAgent","outputs":[{"components":[{"internalType":"uint256","name":"receiptId","type":"uint256"},{"internalType":"string","name":"agentId","type":"string"},{"internalType":"uint256","name":"marketId","type":"uint256"},{"internalType":"bytes32","name":"signalHash","type":"bytes32"},{"internalType":"bytes32","name":"reasoningHash","type":"bytes32"},{"internalType":"uint16","name":"integrityScore","type":"uint16"},{"internalType":"uint16","name":"agentProbability","type":"uint16"},{"internalType":"uint16","name":"marketProbability","type":"uint16"},{"internalType":"int256","name":"edgeBps","type":"int256"},{"internalType":"uint256","name":"suggestedUsdcAmount","type":"uint256"},{"internalType":"string","name":"decision","type":"string"},{"internalType":"enum ReasoningReceiptRegistry.LifecycleState","name":"lifecycleState","type":"uint8"},{"internalType":"uint256","name":"timestamp","type":"uint256"},{"internalType":"address","name":"writer","type":"address"}],"internalType":"struct ReasoningReceiptRegistry.Receipt[]","name":"results","type":"tuple[]"}],"stateMutability":"view","type":"function"},{"inputs":[{"internalType":"uint256","name":"receiptId","type":"uint256"},{"internalType":"enum ReasoningReceiptRegistry.LifecycleState","name":"lifecycleState","type":"uint8"}],"name":"updateLifecycleState","outputs":[],"stateMutability":"nonpayable","type":"function"},{"inputs":[{"internalType":"string","name":"agentId","type":"string"},{"internalType":"uint256","name":"marketId","type":"uint256"},{"internalType":"bytes32","name":"signalHash","type":"bytes32"},{"internalType":"bytes32","name":"reasoningHash","type":"bytes32"},{"internalType":"uint16","name":"integrityScore","type":"uint16"},{"internalType":"uint16","name":"agentProbability","type":"uint16"},{"internalType":"uint16","name":"marketProbability","type":"uint16"},{"internalType":"int256","name":"edgeBps","type":"int256"},{"internalType":"uint256","name":"suggestedUsdcAmount","type":"uint256"},{"internalType":"string","name":"decision","type":"string"}],"name":"writeReceipt","outputs":[{"internalType":"uint256","name":"receiptId","type":"uint256"}],"stateMutability":"nonpayable","type":"function"}],"evm":{"bytecode":{"linkReferences":{},"object":"6080806040523461001a5760015f55610e5d908161001f8239f35b5f80fdfe60806040526004361015610011575f80fd5b60e05f3560e01c90816331a294ee1461083b575080635f4d654c146107b7578063b63e6ac31461069d5763dbfbc8e914610049575f80fd5b34610699576101403660031901126106995760043567ffffffffffffffff81116106995761007b903690600401610a71565b6084359190606461ffff841684036106995760a4359361ffff851685036106995760c4359361ffff85168503610699576101243567ffffffffffffffff8111610699576100cc903690600401610a71565b9190968515610664578461ffff85161161062a578461ffff8216116105ee578461ffff8816116105b1575f54965f19881461059d5761ffff90600189015f55816040519361011985610bb0565b8a8552610127368b88610bef565b6020860152602435604086015260443560608601528835608086015281881660a08601521660c08401521660e082015260e4356101008201526101043561012082015261017536848a610bef565b6101408201525f61016082015242610180820152336101a0820152865f52600160205260405f2081518155602082015180519067ffffffffffffffff82116103e65781906101c66001850154610cc9565b601f811161054d575b50602090601f83116001146104df575f926104d4575b50508160011b915f199060031b1c19161760018201555b6040820151600282015560608201516003820155608082015160048201556005810161ffff60a08401511681549063ffff000060c086015160101b169065ffff0000000060e087015160201b169265ffffffffffff191617171790556101008201516006820155610120820151600782015561014082015180519067ffffffffffffffff82116103e65781906102956008850154610cc9565b601f8111610484575b50602090601f8311600114610419575f9261040e575b50508160011b915f199060031b1c19161760088201555b6101608201519060058210156103fa576102ea600b9260098301610def565b610180830151600a82015501906101a060018060a01b03910151166bffffffffffffffffffffffff60a01b825416179055610326368683610bef565b602081519101205f52600260205260405f2092835492680100000000000000008410156103e657600184018086558410156103d25760209861ffff6103a66103b9958b7f8ca6aacc5c2e1d63cb37a2b938b994d80c211bb2b720ada5fcf09fb17fe3999998819a5f528e5f2001556040519a60808c5260808c0191610e07565b93168a8901528783036040890152610e07565b92336060860152359380602435940390a4604051908152f35b634e487b7160e01b5f52603260045260245ffd5b634e487b7160e01b5f52604160045260245ffd5b634e487b7160e01b5f52602160045260245ffd5b015190505f806102b4565b600885015f908152602081209350601f198516905b81811061046c5750908460019594939210610454575b505050811b0160088201556102cb565b01515f1960f88460031b161c191690555f8080610444565b9293602060018192878601518155019501930161042e565b909150600884015f5260205f20601f840160051c8101602085106104cd575b90849392915b601f830160051c820181106104bf57505061029e565b5f81558594506001016104a9565b50806104a3565b015190505f806101e5565b9250600184015f5260205f20905f935b601f1984168510610532576001945083601f1981161061051a575b505050811b0160018201556101fc565b01515f1960f88460031b161c191690555f808061050a565b818101518355602094850194600190930192909101906104ef565b909150600184015f5260205f20601f840160051c810160208510610596575b90849392915b601f830160051c820181106105885750506101cf565b5f8155859450600101610572565b508061056c565b634e487b7160e01b5f52601160045260245ffd5b60405162461bcd60e51b81526020600482015260166024820152754241445f4d41524b45545f50524f424142494c49545960501b60448201528590fd5b60405162461bcd60e51b81526020600482015260156024820152744241445f4147454e545f50524f424142494c49545960581b60448201528590fd5b60405162461bcd60e51b81526020600482015260136024820152724241445f494e544547524954595f53434f524560681b60448201528590fd5b60405162461bcd60e51b815260206004820152600e60248201526d1051d1539517d49154555254915160921b60448201528590fd5b5f80fd5b3461069957602080600319360112610699576004356106ba610c4d565b50805f52600182526106d4600a60405f2001541515610daf565b5f526001815260405f2090604051916106ec83610bb0565b805483526106fc60018201610d01565b82840152600281015460408401526003810154606084015260048101546080840152600581015461ffff9081811660a0860152818160101c1660c0860152831c1660e08401526006810154610100840152600781015461012084015261076460088201610d01565b61014084015261077f60ff6009830154166101608501610da3565b600a810154610180840152600b01546001600160a01b03166101a08301526040518181529182916107b39190830190610aea565b0390f35b346106995760403660031901126106995760043560243560058110156106995760207f05793ae55a91f2e4613bfd41e271bf4378995073bfbe4cba18bede561586d39491835f5260018252610814600a60405f2001541515610daf565b835f526001825261082b81600960405f2001610def565b6108386040518092610add565ba2005b3461069957602090816003193601126106995760043567ffffffffffffffff811161069957610871610878913690600401610a71565b3691610bef565b8281519101205f526002906002835260405f20916040518084868296549384815201905f52865f20925f5b88828210610a5b575050506108ba92500384610bcd565b8251916108df6108c984610c35565b936108d76040519586610bcd565b808552610c35565b601f1901855f5b828110610a45575050505f5b84518110156109e8578061090860019287610cb5565b515f528180885260405f2061092e6040519261092384610bb0565b825484528201610d01565b898301528581015460408301526003810154606083015260048101546080830152600581015461ffff9081811660a0850152818160101c1660c08501528a1c16858301526006810154610100830152600781015461012083015261099460088201610d01565b6101408301526109af60ff6009830154166101608401610da3565b600a810154610180830152600b848060a01b03910154166101a08201526109d68287610cb5565b526109e18186610cb5565b50016108f2565b6040805187815285518189018190525f92600582901b8301810191888b01918b9085015b828710610a195785850386f35b909192938280610a35600193603f198a82030186528851610aea565b9601920196019592919092610a0c565b610a4d610c4d565b8282880101520186906108e6565b85548452600195860195899550930192016108a3565b9181601f840112156106995782359167ffffffffffffffff8311610699576020838186019501011161069957565b91908251928382525f5b848110610ac9575050825f602080949584010152601f8019910116010190565b602081830181015184830182015201610aa9565b9060058210156103fa5752565b90610b7b610b0c6101c084518452602085015190806020860152840190610a9f565b60408401516040840152606084015160608401526080840151608084015260a084015161ffff80911660a08501528060c08601511660c085015260e08501511660e084015261010080850151908401526101208085015190840152610140808501519084830390850152610a9f565b91610b8f6101608083015190840190610add565b61018081810151908301526101a0908101516001600160a01b031691015290565b6101c0810190811067ffffffffffffffff8211176103e657604052565b90601f8019910116810190811067ffffffffffffffff8211176103e657604052565b92919267ffffffffffffffff82116103e65760405191610c19601f8201601f191660200184610bcd565b829481845281830111610699578281602093845f960137010152565b67ffffffffffffffff81116103e65760051b60200190565b60405190610c5a82610bb0565b5f6101a083828152606060208201528260408201528260608201528260808201528260a08201528260c08201528260e08201528261010082015282610120820152606061014082015282610160820152826101808201520152565b80518210156103d25760209160051b010190565b90600182811c92168015610cf7575b6020831014610ce357565b634e487b7160e01b5f52602260045260245ffd5b91607f1691610cd8565b9060405191825f8254610d1381610cc9565b908184526020946001916001811690815f14610d815750600114610d43575b505050610d4192500383610bcd565b565b5f90815285812095935091905b818310610d69575050610d4193508201015f8080610d32565b85548884018501529485019487945091830191610d50565b92505050610d4194925060ff191682840152151560051b8201015f8080610d32565b60058210156103fa5752565b15610db657565b60405162461bcd60e51b8152602060048201526011602482015270149150d152541517d393d517d193d55391607a1b6044820152606490fd5b9060058110156103fa5760ff80198354169116179055565b908060209392818452848401375f828201840152601f01601f191601019056fea264697066735822122087967c1744e43f6400a305b8d46e6e00632d6de3b57756c62d04db17739e326c64736f6c63430008180033","opcodes":"PUSH1 0x80 DUP1 PUSH1 0x40 MSTORE CALLVALUE PUSH2 0x1A JUMPI PUSH1 0x1 PUSH0 SSTORE PUSH2 0xE5D SWAP1 DUP2 PUSH2 0x1F DUP3 CODECOPY RETURN JUMPDEST PUSH0 DUP1 REVERT INVALID PUSH1 0x80 PUSH1 0x40 MSTORE PUSH1 0x4 CALLDATASIZE LT ISZERO PUSH2 0x11 JUMPI PUSH0 DUP1 REVERT JUMPDEST PUSH1 0xE0 PUSH0 CALLDATALOAD PUSH1 0xE0 SHR SWAP1 DUP2 PUSH4 0x31A294EE EQ PUSH2 0x83B JUMPI POP DUP1 PUSH4 0x5F4D654C EQ PUSH2 0x7B7 JUMPI DUP1 PUSH4 0xB63E6AC3 EQ PUSH2 0x69D JUMPI PUSH4 0xDBFBC8E9 EQ PUSH2 0x49 JUMPI PUSH0 DUP1 REVERT JUMPDEST CALLVALUE PUSH2 0x699 JUMPI PUSH2 0x140 CALLDATASIZE PUSH1 0x3 NOT ADD SLT PUSH2 0x699 JUMPI PUSH1 0x4 CALLDATALOAD PUSH8 0xFFFFFFFFFFFFFFFF DUP2 GT PUSH2 0x699 JUMPI PUSH2 0x7B SWAP1 CALLDATASIZE SWAP1 PUSH1 0x4 ADD PUSH2 0xA71 JUMP JUMPDEST PUSH1 0x84 CALLDATALOAD SWAP2 SWAP1 PUSH1 0x64 PUSH2 0xFFFF DUP5 AND DUP5 SUB PUSH2 0x699 JUMPI PUSH1 0xA4 CALLDATALOAD SWAP4 PUSH2 0xFFFF DUP6 AND DUP6 SUB PUSH2 0x699 JUMPI PUSH1 0xC4 CALLDATALOAD SWAP4 PUSH2 0xFFFF DUP6 AND DUP6 SUB PUSH2 0x699 JUMPI PUSH2 0x124 CALLDATALOAD PUSH8 0xFFFFFFFFFFFFFFFF DUP2 GT PUSH2 0x699 JUMPI PUSH2 0xCC SWAP1 CALLDATASIZE SWAP1 PUSH1 0x4 ADD PUSH2 0xA71 JUMP JUMPDEST SWAP2 SWAP1 SWAP7 DUP6 ISZERO PUSH2 0x664 JUMPI DUP5 PUSH2 0xFFFF DUP6 AND GT PUSH2 0x62A JUMPI DUP5 PUSH2 0xFFFF DUP3 AND GT PUSH2 0x5EE JUMPI DUP5 PUSH2 0xFFFF DUP9 AND GT PUSH2 0x5B1 JUMPI PUSH0 SLOAD SWAP7 PUSH0 NOT DUP9 EQ PUSH2 0x59D JUMPI PUSH2 0xFFFF SWAP1 PUSH1 0x1 DUP10 ADD PUSH0 SSTORE DUP2 PUSH1 0x40 MLOAD SWAP4 PUSH2 0x119 DUP6 PUSH2 0xBB0 JUMP JUMPDEST DUP11 DUP6 MSTORE PUSH2 0x127 CALLDATASIZE DUP12 DUP9 PUSH2 0xBEF JUMP JUMPDEST PUSH1 0x20 DUP7 ADD MSTORE PUSH1 0x24 CALLDATALOAD PUSH1 0x40 DUP7 ADD MSTORE PUSH1 0x44 CALLDATALOAD PUSH1 0x60 DUP7 ADD MSTORE DUP9 CALLDATALOAD PUSH1 0x80 DUP7 ADD MSTORE DUP2 DUP9 AND PUSH1 0xA0 DUP7 ADD MSTORE AND PUSH1 0xC0 DUP5 ADD MSTORE AND PUSH1 0xE0 DUP3 ADD MSTORE PUSH1 0xE4 CALLDATALOAD PUSH2 0x100 DUP3 ADD MSTORE PUSH2 0x104 CALLDATALOAD PUSH2 0x120 DUP3 ADD MSTORE PUSH2 0x175 CALLDATASIZE DUP5 DUP11 PUSH2 0xBEF JUMP JUMPDEST PUSH2 0x140 DUP3 ADD MSTORE PUSH0 PUSH2 0x160 DUP3 ADD MSTORE TIMESTAMP PUSH2 0x180 DUP3 ADD MSTORE CALLER PUSH2 0x1A0 DUP3 ADD MSTORE DUP7 PUSH0 MSTORE PUSH1 0x1 PUSH1 0x20 MSTORE PUSH1 0x40 PUSH0 KECCAK256 DUP2 MLOAD DUP2 SSTORE PUSH1 0x20 DUP3 ADD MLOAD DUP1 MLOAD SWAP1 PUSH8 0xFFFFFFFFFFFFFFFF DUP3 GT PUSH2 0x3E6 JUMPI DUP2 SWAP1 PUSH2 0x1C6 PUSH1 0x1 DUP6 ADD SLOAD PUSH2 0xCC9 JUMP JUMPDEST PUSH1 0x1F DUP2 GT PUSH2 0x54D JUMPI JUMPDEST POP PUSH1 0x20 SWAP1 PUSH1 0x1F DUP4 GT PUSH1 0x1 EQ PUSH2 0x4DF JUMPI PUSH0 SWAP3 PUSH2 0x4D4 JUMPI JUMPDEST POP POP DUP2 PUSH1 0x1 SHL SWAP2 PUSH0 NOT SWAP1 PUSH1 0x3 SHL SHR NOT AND OR PUSH1 0x1 DUP3 ADD SSTORE JUMPDEST PUSH1 0x40 DUP3 ADD MLOAD PUSH1 0x2 DUP3 ADD SSTORE PUSH1 0x60 DUP3 ADD MLOAD PUSH1 0x3 DUP3 ADD SSTORE PUSH1 0x80 DUP3 ADD MLOAD PUSH1 0x4 DUP3 ADD SSTORE PUSH1 0x5 DUP2 ADD PUSH2 0xFFFF PUSH1 0xA0 DUP5 ADD MLOAD AND DUP2 SLOAD SWAP1 PUSH4 0xFFFF0000 PUSH1 0xC0 DUP7 ADD MLOAD PUSH1 0x10 SHL AND SWAP1 PUSH6 0xFFFF00000000 PUSH1 0xE0 DUP8 ADD MLOAD PUSH1 0x20 SHL AND SWAP3 PUSH6 0xFFFFFFFFFFFF NOT AND OR OR OR SWAP1 SSTORE PUSH2 0x100 DUP3 ADD MLOAD PUSH1 0x6 DUP3 ADD SSTORE PUSH2 0x120 DUP3 ADD MLOAD PUSH1 0x7 DUP3 ADD SSTORE PUSH2 0x140 DUP3 ADD MLOAD DUP1 MLOAD SWAP1 PUSH8 0xFFFFFFFFFFFFFFFF DUP3 GT PUSH2 0x3E6 JUMPI DUP2 SWAP1 PUSH2 0x295 PUSH1 0x8 DUP6 ADD SLOAD PUSH2 0xCC9 JUMP JUMPDEST PUSH1 0x1F DUP2 GT PUSH2 0x484 JUMPI JUMPDEST POP PUSH1 0x20 SWAP1 PUSH1 0x1F DUP4 GT PUSH1 0x1 EQ PUSH2 0x419 JUMPI PUSH0 SWAP3 PUSH2 0x40E JUMPI JUMPDEST POP POP DUP2 PUSH1 0x1 SHL SWAP2 PUSH0 NOT SWAP1 PUSH1 0x3 SHL SHR NOT AND OR PUSH1 0x8 DUP3 ADD SSTORE JUMPDEST PUSH2 0x160 DUP3 ADD MLOAD SWAP1 PUSH1 0x5 DUP3 LT ISZERO PUSH2 0x3FA JUMPI PUSH2 0x2EA PUSH1 0xB SWAP3 PUSH1 0x9 DUP4 ADD PUSH2 0xDEF JUMP JUMPDEST PUSH2 0x180 DUP4 ADD MLOAD PUSH1 0xA DUP3 ADD SSTORE ADD SWAP1 PUSH2 0x1A0 PUSH1 0x1 DUP1 PUSH1 0xA0 SHL SUB SWAP2 ADD MLOAD AND PUSH12 0xFFFFFFFFFFFFFFFFFFFFFFFF PUSH1 0xA0 SHL DUP3 SLOAD AND OR SWAP1 SSTORE PUSH2 0x326 CALLDATASIZE DUP7 DUP4 PUSH2 0xBEF JUMP JUMPDEST PUSH1 0x20 DUP2 MLOAD SWAP2 ADD KECCAK256 PUSH0 MSTORE PUSH1 0x2 PUSH1 0x20 MSTORE PUSH1 0x40 PUSH0 KECCAK256 SWAP3 DUP4 SLOAD SWAP3 PUSH9 0x10000000000000000 DUP5 LT ISZERO PUSH2 0x3E6 JUMPI PUSH1 0x1 DUP5 ADD DUP1 DUP7 SSTORE DUP5 LT ISZERO PUSH2 0x3D2 JUMPI PUSH1 0x20 SWAP9 PUSH2 0xFFFF PUSH2 0x3A6 PUSH2 0x3B9 SWAP6 DUP12 PUSH32 0x8CA6AACC5C2E1D63CB37A2B938B994D80C211BB2B720ADA5FCF09FB17FE39999 SWAP9 DUP2 SWAP11 PUSH0 MSTORE DUP15 PUSH0 KECCAK256 ADD SSTORE PUSH1 0x40 MLOAD SWAP11 PUSH1 0x80 DUP13 MSTORE PUSH1 0x80 DUP13 ADD SWAP2 PUSH2 0xE07 JUMP JUMPDEST SWAP4 AND DUP11 DUP10 ADD MSTORE DUP8 DUP4 SUB PUSH1 0x40 DUP10 ADD MSTORE PUSH2 0xE07 JUMP JUMPDEST SWAP3 CALLER PUSH1 0x60 DUP7 ADD MSTORE CALLDATALOAD SWAP4 DUP1 PUSH1 0x24 CALLDATALOAD SWAP5 SUB SWAP1 LOG4 PUSH1 0x40 MLOAD SWAP1 DUP2 MSTORE RETURN JUMPDEST PUSH4 0x4E487B71 PUSH1 0xE0 SHL PUSH0 MSTORE PUSH1 0x32 PUSH1 0x4 MSTORE PUSH1 0x24 PUSH0 REVERT JUMPDEST PUSH4 0x4E487B71 PUSH1 0xE0 SHL PUSH0 MSTORE PUSH1 0x41 PUSH1 0x4 MSTORE PUSH1 0x24 PUSH0 REVERT JUMPDEST PUSH4 0x4E487B71 PUSH1 0xE0 SHL PUSH0 MSTORE PUSH1 0x21 PUSH1 0x4 MSTORE PUSH1 0x24 PUSH0 REVERT JUMPDEST ADD MLOAD SWAP1 POP PUSH0 DUP1 PUSH2 0x2B4 JUMP JUMPDEST PUSH1 0x8 DUP6 ADD PUSH0 SWAP1 DUP2 MSTORE PUSH1 0x20 DUP2 KECCAK256 SWAP4 POP PUSH1 0x1F NOT DUP6 AND SWAP1 JUMPDEST DUP2 DUP2 LT PUSH2 0x46C JUMPI POP SWAP1 DUP5 PUSH1 0x1 SWAP6 SWAP5 SWAP4 SWAP3 LT PUSH2 0x454 JUMPI JUMPDEST POP POP POP DUP2 SHL ADD PUSH1 0x8 DUP3 ADD SSTORE PUSH2 0x2CB JUMP JUMPDEST ADD MLOAD PUSH0 NOT PUSH1 0xF8 DUP5 PUSH1 0x3 SHL AND SHR NOT AND SWAP1 SSTORE PUSH0 DUP1 DUP1 PUSH2 0x444 JUMP JUMPDEST SWAP3 SWAP4 PUSH1 0x20 PUSH1 0x1 DUP2 SWAP3 DUP8 DUP7 ADD MLOAD DUP2 SSTORE ADD SWAP6 ADD SWAP4 ADD PUSH2 0x42E JUMP JUMPDEST SWAP1 SWAP2 POP PUSH1 0x8 DUP5 ADD PUSH0 MSTORE PUSH1 0x20 PUSH0 KECCAK256 PUSH1 0x1F DUP5 ADD PUSH1 0x5 SHR DUP2 ADD PUSH1 0x20 DUP6 LT PUSH2 0x4CD JUMPI JUMPDEST SWAP1 DUP5 SWAP4 SWAP3 SWAP2 JUMPDEST PUSH1 0x1F DUP4 ADD PUSH1 0x5 SHR DUP3 ADD DUP2 LT PUSH2 0x4BF JUMPI POP POP PUSH2 0x29E JUMP JUMPDEST PUSH0 DUP2 SSTORE DUP6 SWAP5 POP PUSH1 0x1 ADD PUSH2 0x4A9 JUMP JUMPDEST POP DUP1 PUSH2 0x4A3 JUMP JUMPDEST ADD MLOAD SWAP1 POP PUSH0 DUP1 PUSH2 0x1E5 JUMP JUMPDEST SWAP3 POP PUSH1 0x1 DUP5 ADD PUSH0 MSTORE PUSH1 0x20 PUSH0 KECCAK256 SWAP1 PUSH0 SWAP4 JUMPDEST PUSH1 0x1F NOT DUP5 AND DUP6 LT PUSH2 0x532 JUMPI PUSH1 0x1 SWAP5 POP DUP4 PUSH1 0x1F NOT DUP2 AND LT PUSH2 0x51A JUMPI JUMPDEST POP POP POP DUP2 SHL ADD PUSH1 0x1 DUP3 ADD SSTORE PUSH2 0x1FC JUMP JUMPDEST ADD MLOAD PUSH0 NOT PUSH1 0xF8 DUP5 PUSH1 0x3 SHL AND SHR NOT AND SWAP1 SSTORE PUSH0 DUP1 DUP1 PUSH2 0x50A JUMP JUMPDEST DUP2 DUP2 ADD MLOAD DUP4 SSTORE PUSH1 0x20 SWAP5 DUP6 ADD SWAP5 PUSH1 0x1 SWAP1 SWAP4 ADD SWAP3 SWAP1 SWAP2 ADD SWAP1 PUSH2 0x4EF JUMP JUMPDEST SWAP1 SWAP2 POP PUSH1 0x1 DUP5 ADD PUSH0 MSTORE PUSH1 0x20 PUSH0 KECCAK256 PUSH1 0x1F DUP5 ADD PUSH1 0x5 SHR DUP2 ADD PUSH1 0x20 DUP6 LT PUSH2 0x596 JUMPI JUMPDEST SWAP1 DUP5 SWAP4 SWAP3 SWAP2 JUMPDEST PUSH1 0x1F DUP4 ADD PUSH1 0x5 SHR DUP3 ADD DUP2 LT PUSH2 0x588 JUMPI POP POP PUSH2 0x1CF JUMP JUMPDEST PUSH0 DUP2 SSTORE DUP6 SWAP5 POP PUSH1 0x1 ADD PUSH2 0x572 JUMP JUMPDEST POP DUP1 PUSH2 0x56C JUMP JUMPDEST PUSH4 0x4E487B71 PUSH1 0xE0 SHL PUSH0 MSTORE PUSH1 0x11 PUSH1 0x4 MSTORE PUSH1 0x24 PUSH0 REVERT JUMPDEST PUSH1 0x40 MLOAD PUSH3 0x461BCD PUSH1 0xE5 SHL DUP2 MSTORE PUSH1 0x20 PUSH1 0x4 DUP3 ADD MSTORE PUSH1 0x16 PUSH1 0x24 DUP3 ADD MSTORE PUSH22 0x4241445F4D41524B45545F50524F424142494C495459 PUSH1 0x50 SHL PUSH1 0x44 DUP3 ADD MSTORE DUP6 SWAP1 REVERT JUMPDEST PUSH1 0x40 MLOAD PUSH3 0x461BCD PUSH1 0xE5 SHL DUP2 MSTORE PUSH1 0x20 PUSH1 0x4 DUP3 ADD MSTORE PUSH1 0x15 PUSH1 0x24 DUP3 ADD MSTORE PUSH21 0x4241445F4147454E545F50524F424142494C495459 PUSH1 0x58 SHL PUSH1 0x44 DUP3 ADD MSTORE DUP6 SWAP1 REVERT JUMPDEST PUSH1 0x40 MLOAD PUSH3 0x461BCD PUSH1 0xE5 SHL DUP2 MSTORE PUSH1 0x20 PUSH1 0x4 DUP3 ADD MSTORE PUSH1 0x13 PUSH1 0x24 DUP3 ADD MSTORE PUSH19 0x4241445F494E544547524954595F53434F5245 PUSH1 0x68 SHL PUSH1 0x44 DUP3 ADD MSTORE DUP6 SWAP1 REVERT JUMPDEST PUSH1 0x40 MLOAD PUSH3 0x461BCD PUSH1 0xE5 SHL DUP2 MSTORE PUSH1 0x20 PUSH1 0x4 DUP3 ADD MSTORE PUSH1 0xE PUSH1 0x24 DUP3 ADD MSTORE PUSH14 0x1051D1539517D491545552549151 PUSH1 0x92 SHL PUSH1 0x44 DUP3 ADD MSTORE DUP6 SWAP1 REVERT JUMPDEST PUSH0 DUP1 REVERT JUMPDEST CALLVALUE PUSH2 0x699 JUMPI PUSH1 0x20 DUP1 PUSH1 0x3 NOT CALLDATASIZE ADD SLT PUSH2 0x699 JUMPI PUSH1 0x4 CALLDATALOAD PUSH2 0x6BA PUSH2 0xC4D JUMP JUMPDEST POP DUP1 PUSH0 MSTORE PUSH1 0x1 DUP3 MSTORE PUSH2 0x6D4 PUSH1 0xA PUSH1 0x40 PUSH0 KECCAK256 ADD SLOAD ISZERO ISZERO PUSH2 0xDAF JUMP JUMPDEST PUSH0 MSTORE PUSH1 0x1 DUP2 MSTORE PUSH1 0x40 PUSH0 KECCAK256 SWAP1 PUSH1 0x40 MLOAD SWAP2 PUSH2 0x6EC DUP4 PUSH2 0xBB0 JUMP JUMPDEST DUP1 SLOAD DUP4 MSTORE PUSH2 0x6FC PUSH1 0x1 DUP3 ADD PUSH2 0xD01 JUMP JUMPDEST DUP3 DUP5 ADD MSTORE PUSH1 0x2 DUP2 ADD SLOAD PUSH1 0x40 DUP5 ADD MSTORE PUSH1 0x3 DUP2 ADD SLOAD PUSH1 0x60 DUP5 ADD MSTORE PUSH1 0x4 DUP2 ADD SLOAD PUSH1 0x80 DUP5 ADD MSTORE PUSH1 0x5 DUP2 ADD SLOAD PUSH2 0xFFFF SWAP1 DUP2 DUP2 AND PUSH1 0xA0 DUP7 ADD MSTORE DUP2 DUP2 PUSH1 0x10 SHR AND PUSH1 0xC0 DUP7 ADD MSTORE DUP4 SHR AND PUSH1 0xE0 DUP5 ADD MSTORE PUSH1 0x6 DUP2 ADD SLOAD PUSH2 0x100 DUP5 ADD MSTORE PUSH1 0x7 DUP2 ADD SLOAD PUSH2 0x120 DUP5 ADD MSTORE PUSH2 0x764 PUSH1 0x8 DUP3 ADD PUSH2 0xD01 JUMP JUMPDEST PUSH2 0x140 DUP5 ADD MSTORE PUSH2 0x77F PUSH1 0xFF PUSH1 0x9 DUP4 ADD SLOAD AND PUSH2 0x160 DUP6 ADD PUSH2 0xDA3 JUMP JUMPDEST PUSH1 0xA DUP2 ADD SLOAD PUSH2 0x180 DUP5 ADD MSTORE PUSH1 0xB ADD SLOAD PUSH1 0x1 PUSH1 0x1 PUSH1 0xA0 SHL SUB AND PUSH2 0x1A0 DUP4 ADD MSTORE PUSH1 0x40 MLOAD DUP2 DUP2 MSTORE SWAP2 DUP3 SWAP2 PUSH2 0x7B3 SWAP2 SWAP1 DUP4 ADD SWAP1 PUSH2 0xAEA JUMP JUMPDEST SUB SWAP1 RETURN JUMPDEST CALLVALUE PUSH2 0x699 JUMPI PUSH1 0x40 CALLDATASIZE PUSH1 0x3 NOT ADD SLT PUSH2 0x699 JUMPI PUSH1 0x4 CALLDATALOAD PUSH1 0x24 CALLDATALOAD PUSH1 0x5 DUP2 LT ISZERO PUSH2 0x699 JUMPI PUSH1 0x20 PUSH32 0x5793AE55A91F2E4613BFD41E271BF4378995073BFBE4CBA18BEDE561586D394 SWAP2 DUP4 PUSH0 MSTORE PUSH1 0x1 DUP3 MSTORE PUSH2 0x814 PUSH1 0xA PUSH1 0x40 PUSH0 KECCAK256 ADD SLOAD ISZERO ISZERO PUSH2 0xDAF JUMP JUMPDEST DUP4 PUSH0 MSTORE PUSH1 0x1 DUP3 MSTORE PUSH2 0x82B DUP2 PUSH1 0x9 PUSH1 0x40 PUSH0 KECCAK256 ADD PUSH2 0xDEF JUMP JUMPDEST PUSH2 0x838 PUSH1 0x40 MLOAD DUP1 SWAP3 PUSH2 0xADD JUMP JUMPDEST LOG2 STOP JUMPDEST CALLVALUE PUSH2 0x699 JUMPI PUSH1 0x20 SWAP1 DUP2 PUSH1 0x3 NOT CALLDATASIZE ADD SLT PUSH2 0x699 JUMPI PUSH1 0x4 CALLDATALOAD PUSH8 0xFFFFFFFFFFFFFFFF DUP2 GT PUSH2 0x699 JUMPI PUSH2 0x871 PUSH2 0x878 SWAP2 CALLDATASIZE SWAP1 PUSH1 0x4 ADD PUSH2 0xA71 JUMP JUMPDEST CALLDATASIZE SWAP2 PUSH2 0xBEF JUMP JUMPDEST DUP3 DUP2 MLOAD SWAP2 ADD KECCAK256 PUSH0 MSTORE PUSH1 0x2 SWAP1 PUSH1 0x2 DUP4 MSTORE PUSH1 0x40 PUSH0 KECCAK256 SWAP2 PUSH1 0x40 MLOAD DUP1 DUP5 DUP7 DUP3 SWAP7 SLOAD SWAP4 DUP5 DUP2 MSTORE ADD SWAP1 PUSH0 MSTORE DUP7 PUSH0 KECCAK256 SWAP3 PUSH0 JUMPDEST DUP9 DUP3 DUP3 LT PUSH2 0xA5B JUMPI POP POP POP PUSH2 0x8BA SWAP3 POP SUB DUP5 PUSH2 0xBCD JUMP JUMPDEST DUP3 MLOAD SWAP2 PUSH2 0x8DF PUSH2 0x8C9 DUP5 PUSH2 0xC35 JUMP JUMPDEST SWAP4 PUSH2 0x8D7 PUSH1 0x40 MLOAD SWAP6 DUP7 PUSH2 0xBCD JUMP JUMPDEST DUP1 DUP6 MSTORE PUSH2 0xC35 JUMP JUMPDEST PUSH1 0x1F NOT ADD DUP6 PUSH0 JUMPDEST DUP3 DUP2 LT PUSH2 0xA45 JUMPI POP POP POP PUSH0 JUMPDEST DUP5 MLOAD DUP2 LT ISZERO PUSH2 0x9E8 JUMPI DUP1 PUSH2 0x908 PUSH1 0x1 SWAP3 DUP8 PUSH2 0xCB5 JUMP JUMPDEST MLOAD PUSH0 MSTORE DUP2 DUP1 DUP9 MSTORE PUSH1 0x40 PUSH0 KECCAK256 PUSH2 0x92E PUSH1 0x40 MLOAD SWAP3 PUSH2 0x923 DUP5 PUSH2 0xBB0 JUMP JUMPDEST DUP3 SLOAD DUP5 MSTORE DUP3 ADD PUSH2 0xD01 JUMP JUMPDEST DUP10 DUP4 ADD MSTORE DUP6 DUP2 ADD SLOAD PUSH1 0x40 DUP4 ADD MSTORE PUSH1 0x3 DUP2 ADD SLOAD PUSH1 0x60 DUP4 ADD MSTORE PUSH1 0x4 DUP2 ADD SLOAD PUSH1 0x80 DUP4 ADD MSTORE PUSH1 0x5 DUP2 ADD SLOAD PUSH2 0xFFFF SWAP1 DUP2 DUP2 AND PUSH1 0xA0 DUP6 ADD MSTORE DUP2 DUP2 PUSH1 0x10 SHR AND PUSH1 0xC0 DUP6 ADD MSTORE DUP11 SHR AND DUP6 DUP4 ADD MSTORE PUSH1 0x6 DUP2 ADD SLOAD PUSH2 0x100 DUP4 ADD MSTORE PUSH1 0x7 DUP2 ADD SLOAD PUSH2 0x120 DUP4 ADD MSTORE PUSH2 0x994 PUSH1 0x8 DUP3 ADD PUSH2 0xD01 JUMP JUMPDEST PUSH2 0x140 DUP4 ADD MSTORE PUSH2 0x9AF PUSH1 0xFF PUSH1 0x9 DUP4 ADD SLOAD AND PUSH2 0x160 DUP5 ADD PUSH2 0xDA3 JUMP JUMPDEST PUSH1 0xA DUP2 ADD SLOAD PUSH2 0x180 DUP4 ADD MSTORE PUSH1 0xB DUP5 DUP1 PUSH1 0xA0 SHL SUB SWAP2 ADD SLOAD AND PUSH2 0x1A0 DUP3 ADD MSTORE PUSH2 0x9D6 DUP3 DUP8 PUSH2 0xCB5 JUMP JUMPDEST MSTORE PUSH2 0x9E1 DUP2 DUP7 PUSH2 0xCB5 JUMP JUMPDEST POP ADD PUSH2 0x8F2 JUMP JUMPDEST PUSH1 0x40 DUP1 MLOAD DUP8 DUP2 MSTORE DUP6 MLOAD DUP2 DUP10 ADD DUP2 SWAP1 MSTORE PUSH0 SWAP3 PUSH1 0x5 DUP3 SWAP1 SHL DUP4 ADD DUP2 ADD SWAP2 DUP9 DUP12 ADD SWAP2 DUP12 SWAP1 DUP6 ADD JUMPDEST DUP3 DUP8 LT PUSH2 0xA19 JUMPI DUP6 DUP6 SUB DUP7 RETURN JUMPDEST SWAP1 SWAP2 SWAP3 SWAP4 DUP3 DUP1 PUSH2 0xA35 PUSH1 0x1 SWAP4 PUSH1 0x3F NOT DUP11 DUP3 SUB ADD DUP7 MSTORE DUP9 MLOAD PUSH2 0xAEA JUMP JUMPDEST SWAP7 ADD SWAP3 ADD SWAP7 ADD SWAP6 SWAP3 SWAP2 SWAP1 SWAP3 PUSH2 0xA0C JUMP JUMPDEST PUSH2 0xA4D PUSH2 0xC4D JUMP JUMPDEST DUP3 DUP3 DUP9 ADD ADD MSTORE ADD DUP7 SWAP1 PUSH2 0x8E6 JUMP JUMPDEST DUP6 SLOAD DUP5 MSTORE PUSH1 0x1 SWAP6 DUP7 ADD SWAP6 DUP10 SWAP6 POP SWAP4 ADD SWAP3 ADD PUSH2 0x8A3 JUMP JUMPDEST SWAP2 DUP2 PUSH1 0x1F DUP5 ADD SLT ISZERO PUSH2 0x699 JUMPI DUP3 CALLDATALOAD SWAP2 PUSH8 0xFFFFFFFFFFFFFFFF DUP4 GT PUSH2 0x699 JUMPI PUSH1 0x20 DUP4 DUP2 DUP7 ADD SWAP6 ADD ADD GT PUSH2 0x699 JUMPI JUMP JUMPDEST SWAP2 SWAP1 DUP3 MLOAD SWAP3 DUP4 DUP3 MSTORE PUSH0 JUMPDEST DUP5 DUP2 LT PUSH2 0xAC9 JUMPI POP POP DUP3 PUSH0 PUSH1 0x20 DUP1 SWAP5 SWAP6 DUP5 ADD ADD MSTORE PUSH1 0x1F DUP1 NOT SWAP2 ADD AND ADD ADD SWAP1 JUMP JUMPDEST PUSH1 0x20 DUP2 DUP4 ADD DUP2 ADD MLOAD DUP5 DUP4 ADD DUP3 ADD MSTORE ADD PUSH2 0xAA9 JUMP JUMPDEST SWAP1 PUSH1 0x5 DUP3 LT ISZERO PUSH2 0x3FA JUMPI MSTORE JUMP JUMPDEST SWAP1 PUSH2 0xB7B PUSH2 0xB0C PUSH2 0x1C0 DUP5 MLOAD DUP5 MSTORE PUSH1 0x20 DUP6 ADD MLOAD SWAP1 DUP1 PUSH1 0x20 DUP7 ADD MSTORE DUP5 ADD SWAP1 PUSH2 0xA9F JUMP JUMPDEST PUSH1 0x40 DUP5 ADD MLOAD PUSH1 0x40 DUP5 ADD MSTORE PUSH1 0x60 DUP5 ADD MLOAD PUSH1 0x60 DUP5 ADD MSTORE PUSH1 0x80 DUP5 ADD MLOAD PUSH1 0x80 DUP5 ADD MSTORE PUSH1 0xA0 DUP5 ADD MLOAD PUSH2 0xFFFF DUP1 SWAP2 AND PUSH1 0xA0 DUP6 ADD MSTORE DUP1 PUSH1 0xC0 DUP7 ADD MLOAD AND PUSH1 0xC0 DUP6 ADD MSTORE PUSH1 0xE0 DUP6 ADD MLOAD AND PUSH1 0xE0 DUP5 ADD MSTORE PUSH2 0x100 DUP1 DUP6 ADD MLOAD SWAP1 DUP5 ADD MSTORE PUSH2 0x120 DUP1 DUP6 ADD MLOAD SWAP1 DUP5 ADD MSTORE PUSH2 0x140 DUP1 DUP6 ADD MLOAD SWAP1 DUP5 DUP4 SUB SWAP1 DUP6 ADD MSTORE PUSH2 0xA9F JUMP JUMPDEST SWAP2 PUSH2 0xB8F PUSH2 0x160 DUP1 DUP4 ADD MLOAD SWAP1 DUP5 ADD SWAP1 PUSH2 0xADD JUMP JUMPDEST PUSH2 0x180 DUP2 DUP2 ADD MLOAD SWAP1 DUP4 ADD MSTORE PUSH2 0x1A0 SWAP1 DUP2 ADD MLOAD PUSH1 0x1 PUSH1 0x1 PUSH1 0xA0 SHL SUB AND SWAP2 ADD MSTORE SWAP1 JUMP JUMPDEST PUSH2 0x1C0 DUP2 ADD SWAP1 DUP2 LT PUSH8 0xFFFFFFFFFFFFFFFF DUP3 GT OR PUSH2 0x3E6 JUMPI PUSH1 0x40 MSTORE JUMP JUMPDEST SWAP1 PUSH1 0x1F DUP1 NOT SWAP2 ADD AND DUP2 ADD SWAP1 DUP2 LT PUSH8 0xFFFFFFFFFFFFFFFF DUP3 GT OR PUSH2 0x3E6 JUMPI PUSH1 0x40 MSTORE JUMP JUMPDEST SWAP3 SWAP2 SWAP3 PUSH8 0xFFFFFFFFFFFFFFFF DUP3 GT PUSH2 0x3E6 JUMPI PUSH1 0x40 MLOAD SWAP2 PUSH2 0xC19 PUSH1 0x1F DUP3 ADD PUSH1 0x1F NOT AND PUSH1 0x20 ADD DUP5 PUSH2 0xBCD JUMP JUMPDEST DUP3 SWAP5 DUP2 DUP5 MSTORE DUP2 DUP4 ADD GT PUSH2 0x699 JUMPI DUP3 DUP2 PUSH1 0x20 SWAP4 DUP5 PUSH0 SWAP7 ADD CALLDATACOPY ADD ADD MSTORE JUMP JUMPDEST PUSH8 0xFFFFFFFFFFFFFFFF DUP2 GT PUSH2 0x3E6 JUMPI PUSH1 0x5 SHL PUSH1 0x20 ADD SWAP1 JUMP JUMPDEST PUSH1 0x40 MLOAD SWAP1 PUSH2 0xC5A DUP3 PUSH2 0xBB0 JUMP JUMPDEST PUSH0 PUSH2 0x1A0 DUP4 DUP3 DUP2 MSTORE PUSH1 0x60 PUSH1 0x20 DUP3 ADD MSTORE DUP3 PUSH1 0x40 DUP3 ADD MSTORE DUP3 PUSH1 0x60 DUP3 ADD MSTORE DUP3 PUSH1 0x80 DUP3 ADD MSTORE DUP3 PUSH1 0xA0 DUP3 ADD MSTORE DUP3 PUSH1 0xC0 DUP3 ADD MSTORE DUP3 PUSH1 0xE0 DUP3 ADD MSTORE DUP3 PUSH2 0x100 DUP3 ADD MSTORE DUP3 PUSH2 0x120 DUP3 ADD MSTORE PUSH1 0x60 PUSH2 0x140 DUP3 ADD MSTORE DUP3 PUSH2 0x160 DUP3 ADD MSTORE DUP3 PUSH2 0x180 DUP3 ADD MSTORE ADD MSTORE JUMP JUMPDEST DUP1 MLOAD DUP3 LT ISZERO PUSH2 0x3D2 JUMPI PUSH1 0x20 SWAP2 PUSH1 0x5 SHL ADD ADD SWAP1 JUMP JUMPDEST SWAP1 PUSH1 0x1 DUP3 DUP2 SHR SWAP3 AND DUP1 ISZERO PUSH2 0xCF7 JUMPI JUMPDEST PUSH1 0x20 DUP4 LT EQ PUSH2 0xCE3 JUMPI JUMP JUMPDEST PUSH4 0x4E487B71 PUSH1 0xE0 SHL PUSH0 MSTORE PUSH1 0x22 PUSH1 0x4 MSTORE PUSH1 0x24 PUSH0 REVERT JUMPDEST SWAP2 PUSH1 0x7F AND SWAP2 PUSH2 0xCD8 JUMP JUMPDEST SWAP1 PUSH1 0x40 MLOAD SWAP2 DUP3 PUSH0 DUP3 SLOAD PUSH2 0xD13 DUP2 PUSH2 0xCC9 JUMP JUMPDEST SWAP1 DUP2 DUP5 MSTORE PUSH1 0x20 SWAP5 PUSH1 0x1 SWAP2 PUSH1 0x1 DUP2 AND SWAP1 DUP2 PUSH0 EQ PUSH2 0xD81 JUMPI POP PUSH1 0x1 EQ PUSH2 0xD43 JUMPI JUMPDEST POP POP POP PUSH2 0xD41 SWAP3 POP SUB DUP4 PUSH2 0xBCD JUMP JUMPDEST JUMP JUMPDEST PUSH0 SWAP1 DUP2 MSTORE DUP6 DUP2 KECCAK256 SWAP6 SWAP4 POP SWAP2 SWAP1 JUMPDEST DUP2 DUP4 LT PUSH2 0xD69 JUMPI POP POP PUSH2 0xD41 SWAP4 POP DUP3 ADD ADD PUSH0 DUP1 DUP1 PUSH2 0xD32 JUMP JUMPDEST DUP6 SLOAD DUP9 DUP5 ADD DUP6 ADD MSTORE SWAP5 DUP6 ADD SWAP5 DUP8 SWAP5 POP SWAP2 DUP4 ADD SWAP2 PUSH2 0xD50 JUMP JUMPDEST SWAP3 POP POP POP PUSH2 0xD41 SWAP5 SWAP3 POP PUSH1 0xFF NOT AND DUP3 DUP5 ADD MSTORE ISZERO ISZERO PUSH1 0x5 SHL DUP3 ADD ADD PUSH0 DUP1 DUP1 PUSH2 0xD32 JUMP JUMPDEST PUSH1 0x5 DUP3 LT ISZERO PUSH2 0x3FA JUMPI MSTORE JUMP JUMPDEST ISZERO PUSH2 0xDB6 JUMPI JUMP JUMPDEST PUSH1 0x40 MLOAD PUSH3 0x461BCD PUSH1 0xE5 SHL DUP2 MSTORE PUSH1 0x20 PUSH1 0x4 DUP3 ADD MSTORE PUSH1 0x11 PUSH1 0x24 DUP3 ADD MSTORE PUSH17 0x149150D152541517D393D517D193D55391 PUSH1 0x7A SHL PUSH1 0x44 DUP3 ADD MSTORE PUSH1 0x64 SWAP1 REVERT JUMPDEST SWAP1 PUSH1 0x5 DUP2 LT ISZERO PUSH2 0x3FA JUMPI PUSH1 0xFF DUP1 NOT DUP4 SLOAD AND SWAP2 AND OR SWAP1 SSTORE JUMP JUMPDEST SWAP1 DUP1 PUSH1 0x20 SWAP4 SWAP3 DUP2 DUP5 MSTORE DUP5 DUP5 ADD CALLDATACOPY PUSH0 DUP3 DUP3 ADD DUP5 ADD MSTORE PUSH1 0x1F ADD PUSH1 0x1F NOT AND ADD ADD SWAP1 JUMP INVALID LOG2 PUSH5 0x6970667358 0x22 SLT KECCAK256 DUP8 SWAP7 PUSH29 0x1744E43F6400A305B8D46E6E00632D6DE3B57756C62D04DB17739E326C PUSH5 0x736F6C6343 STOP ADDMOD XOR STOP CALLER "},"methodIdentifiers":{"getReceipt(uint256)":"b63e6ac3","getReceiptsByAgent(string)":"31a294ee","updateLifecycleState(uint256,uint8)":"5f4d654c","writeReceipt(string,uint256,bytes32,bytes32,uint16,uint16,uint16,int256,uint256,string)":"dbfbc8e9"}}}}}