{"project/contracts/MarketRegistry.sol":{"MarketRegistry":{"abi":[{"anonymous":false,"inputs":[{"indexed":true,"internalType":"uint256","name":"marketId","type":"uint256"},{"indexed":false,"internalType":"string","name":"question","type":"string"},{"indexed":false,"internalType":"string","name":"category","type":"string"},{"indexed":false,"internalType":"string","name":"resolutionSource","type":"string"},{"indexed":true,"internalType":"bytes32","name":"resolutionSourceHash","type":"bytes32"},{"indexed":false,"internalType":"uint256","name":"deadline","type":"uint256"},{"indexed":false,"internalType":"uint256","name":"liquidityHint","type":"uint256"},{"indexed":false,"internalType":"string","name":"marketType","type":"string"},{"indexed":true,"internalType":"address","name":"creator","type":"address"}],"name":"MarketCreated","type":"event"},{"anonymous":false,"inputs":[{"indexed":true,"internalType":"uint256","name":"marketId","type":"uint256"},{"indexed":false,"internalType":"enum MarketRegistry.MarketStatus","name":"status","type":"uint8"}],"name":"MarketStatusUpdated","type":"event"},{"inputs":[{"internalType":"string","name":"question","type":"string"},{"internalType":"string","name":"category","type":"string"},{"internalType":"string","name":"resolutionSource","type":"string"},{"internalType":"bytes32","name":"resolutionSourceHash","type":"bytes32"},{"internalType":"uint256","name":"deadline","type":"uint256"},{"internalType":"uint256","name":"liquidityHint","type":"uint256"},{"internalType":"string","name":"marketType","type":"string"}],"name":"createMarket","outputs":[{"internalType":"uint256","name":"marketId","type":"uint256"}],"stateMutability":"nonpayable","type":"function"},{"inputs":[{"internalType":"uint256","name":"marketId","type":"uint256"}],"name":"getMarket","outputs":[{"components":[{"internalType":"uint256","name":"marketId","type":"uint256"},{"internalType":"string","name":"question","type":"string"},{"internalType":"string","name":"category","type":"string"},{"internalType":"string","name":"resolutionSource","type":"string"},{"internalType":"bytes32","name":"resolutionSourceHash","type":"bytes32"},{"internalType":"uint256","name":"deadline","type":"uint256"},{"internalType":"uint256","name":"createdAt","type":"uint256"},{"internalType":"enum MarketRegistry.MarketStatus","name":"status","type":"uint8"},{"internalType":"address","name":"creator","type":"address"},{"internalType":"uint256","name":"liquidityHint","type":"uint256"},{"internalType":"string","name":"marketType","type":"string"}],"internalType":"struct MarketRegistry.Market","name":"","type":"tuple"}],"stateMutability":"view","type":"function"},{"inputs":[],"name":"getMarkets","outputs":[{"components":[{"internalType":"uint256","name":"marketId","type":"uint256"},{"internalType":"string","name":"question","type":"string"},{"internalType":"string","name":"category","type":"string"},{"internalType":"string","name":"resolutionSource","type":"string"},{"internalType":"bytes32","name":"resolutionSourceHash","type":"bytes32"},{"internalType":"uint256","name":"deadline","type":"uint256"},{"internalType":"uint256","name":"createdAt","type":"uint256"},{"internalType":"enum MarketRegistry.MarketStatus","name":"status","type":"uint8"},{"internalType":"address","name":"creator","type":"address"},{"internalType":"uint256","name":"liquidityHint","type":"uint256"},{"internalType":"string","name":"marketType","type":"string"}],"internalType":"struct MarketRegistry.Market[]","name":"results","type":"tuple[]"}],"stateMutability":"view","type":"function"},{"inputs":[{"internalType":"uint256","name":"marketId","type":"uint256"},{"internalType":"enum MarketRegistry.MarketStatus","name":"status","type":"uint8"}],"name":"updateMarketStatus","outputs":[],"stateMutability":"nonpayable","type":"function"}],"evm":{"bytecode":{"linkReferences":{},"object":"6080806040523461001a5760015f55610fa6908161001f8239f35b5f80fdfe60806040526004361015610011575f80fd5b60e05f3560e01c90816348d0eca214610ae1578163eb44fdd3146109ea578163ec2c901614610832575063f40bc9fb14610049575f80fd5b3461082e5760e036600319011261082e576004356001600160401b03811161082e57610079903690600401610c9f565b6024356001600160401b03811161082e57610098903690600401610c9f565b9290916044356001600160401b03811161082e576100ba903690600401610c9f565b909460c4356001600160401b03811161082e576100db903690600401610c9f565b94909380156107f55783156107be57426084351115610786575f54965f19881461077257600188015f5560405161011181610d23565b88815261011f368486610f0b565b602082015261012f368684610f0b565b604082015261013f36878c610f0b565b6060820152606435608082015260843560a08201524260c08201525f60e08201523361010082015260a43561012082015261017b368989610f0b565b610140820152885f52600260205260405f20908051825560208101518051906001600160401b0382116104365781906101b76001860154610db1565b601f8111610722575b50602090601f83116001146106b4575f926106a9575b50508160011b915f199060031b1c19161760018301555b60408101518051906001600160401b0382116104365781906102126002860154610db1565b601f8111610659575b50602090601f83116001146105eb575f926105e0575b50508160011b915f199060031b1c19161760028301555b60608101518051906001600160401b03821161043657819061026d6003860154610db1565b601f8111610590575b50602090601f8311600114610522575f92610517575b50508160011b915f199060031b1c19161760038301555b6080810151600483015560a0810151600583015560c08101516006830155600782019060e0810151916004831015610503576102e26101409382610d0b565b6101008201518154610100600160a81b031916600891821b610100600160a81b0316179091556101208201519084015501518051906001600160401b038211610436576103326009840154610db1565b601f81116104bf575b50602090601f831160011461045557600992915f918361044a575b50508160011b915f199060031b1c1916179101555b60015493680100000000000000008510156104365760209989966103fa61042b94610408946103c18a60017fcd0a61f6247c75e1d6ff75ade7fc138cfbd35f664e59bfa6348eeb0521dc59669c01600155610eae565b81549060031b908d821b915f19901b19161790556103ec604051998a9960c08b5260c08b0191610f50565b9188830360208a0152610f50565b918583036040870152610f50565b608435606084015260a435608084015282810360a0840152339760643597610f50565b0390a4604051908152f35b634e487b7160e01b5f52604160045260245ffd5b015190505f80610356565b90601f19831691600985015f5260205f20925f5b8181106104a75750916001939185600996941061048f575b505050811b0191015561036b565b01515f1960f88460031b161c191690555f8080610481565b92936020600181928786015181550195019301610469565b600984015f5260205f20601f840160051c8101602085106104fc575b601f830160051c820181106104f157505061033b565b5f81556001016104db565b50806104db565b634e487b7160e01b5f52602160045260245ffd5b015190505f8061028c565b9250600385015f5260205f20905f935b601f1984168510610575576001945083601f1981161061055d575b505050811b0160038301556102a3565b01515f1960f88460031b161c191690555f808061054d565b81810151835560209485019460019093019290910190610532565b909150600385015f5260205f20601f840160051c8101602085106105d9575b90849392915b601f830160051c820181106105cb575050610276565b5f81558594506001016105b5565b50806105af565b015190505f80610231565b9250600285015f5260205f20905f935b601f198416851061063e576001945083601f19811610610626575b505050811b016002830155610248565b01515f1960f88460031b161c191690555f8080610616565b818101518355602094850194600190930192909101906105fb565b909150600285015f5260205f20601f840160051c8101602085106106a2575b90849392915b601f830160051c8201811061069457505061021b565b5f815585945060010161067e565b5080610678565b015190505f806101d6565b9250600185015f5260205f20905f935b601f1984168510610707576001945083601f198116106106ef575b505050811b0160018301556101ed565b01515f1960f88460031b161c191690555f80806106df565b818101518355602094850194600190930192909101906106c4565b909150600185015f5260205f20601f840160051c81016020851061076b575b90849392915b601f830160051c8201811061075d5750506101c0565b5f8155859450600101610747565b5080610741565b634e487b7160e01b5f52601160045260245ffd5b60405162461bcd60e51b815260206004820152601060248201526f111150511312539157d25397d41054d560821b6044820152606490fd5b60405162461bcd60e51b815260206004820152600f60248201526e14d3d55490d157d491545552549151608a1b6044820152606490fd5b60405162461bcd60e51b815260206004820152601160248201527014555154d51253d397d491545552549151607a1b6044820152606490fd5b5f80fd5b3461082e575f36600319011261082e576001906001549161085283610e97565b926108606040519485610d3f565b80845261086c81610e97565b60209390601f19015f5b8181106109ce5750505f5b8281106108e95750505060405191808301818452845180915260408401918060408360051b8701019601925f905b8382106108bc5786880387f35b909192939483806108d8839a603f198b82030186528951610bed565b9997019594939190910191016108af565b908382866109a660096108fe859b9997610eae565b9054600391821b1c5f5261094c60029182865261094060405f20936040519761092689610d23565b855489526109358b8701610de9565b908901528401610de9565b60408701528201610de9565b606085015260048101546080850152600581015460a0850152600681015460c0850152600781015461098360ff8216898701610e8b565b600890811c6001600160a01b031661010086015281015461012085015201610de9565b6101408201526109b68288610ef7565b526109c18187610ef7565b5001909150949294610881565b85906109db979597610d60565b82828801015201959395610876565b3461082e57602036600319011261082e57610a03610d60565b506004355f526002602052610add60405f20610ac960405191610a2583610d23565b80548352610a3560018201610de9565b6020840152610a4660028201610de9565b6040840152610a5760038201610de9565b606084015260048101546080840152600581015460a0840152600681015460c08401526007810154610a8f60ff821660e08601610e8b565b610aba600960018060a01b03938461010088019460081c168452600881015461012088015201610de9565b61014085015251161515610ccc565b604051918291602083526020830190610bed565b0390f35b3461082e57604036600319011261082e57600435602435600481101561082e575f828152600260205260409020600701805460081c6001600160a01b0316610b2a811515610ccc565b3303610b6e5781610b5e7fd067ebf1565b7b7f7e3c08ccb7f355defc06fd6a3e5e3da1f0a43c8a235350ac93602093610d0b565b610b6b6040518092610be0565ba2005b60405162461bcd60e51b815260206004820152600c60248201526b27a7262cafa1a922a0aa27a960a11b6044820152606490fd5b91908251928382525f5b848110610bcc575050825f602080949584010152601f8019910116010190565b602081830181015184830182015201610bac565b9060048210156105035752565b90610c9c91610c3a610c28610c1661016084518652602085015190806020880152860190610ba2565b60408401518582036040870152610ba2565b60608301518482036060860152610ba2565b916080820151608082015260a082015160a082015260c082015160c0820152610c6b60e083015160e0830190610be0565b61010060018060a01b0381840151169082015261012080830151908201526101408092015191818403910152610ba2565b90565b9181601f8401121561082e578235916001600160401b03831161082e576020838186019501011161082e57565b15610cd357565b60405162461bcd60e51b815260206004820152601060248201526f13505492d15517d393d517d193d5539160821b6044820152606490fd5b9060048110156105035760ff80198354169116179055565b61016081019081106001600160401b0382111761043657604052565b90601f801991011681019081106001600160401b0382111761043657604052565b60405190610d6d82610d23565b6060610140835f815282602082015282604082015282808201525f60808201525f60a08201525f60c08201525f60e08201525f6101008201525f6101208201520152565b90600182811c92168015610ddf575b6020831014610dcb57565b634e487b7160e01b5f52602260045260245ffd5b91607f1691610dc0565b9060405191825f8254610dfb81610db1565b908184526020946001916001811690815f14610e695750600114610e2b575b505050610e2992500383610d3f565b565b5f90815285812095935091905b818310610e51575050610e2993508201015f8080610e1a565b85548884018501529485019487945091830191610e38565b92505050610e2994925060ff191682840152151560051b8201015f8080610e1a565b60048210156105035752565b6001600160401b0381116104365760051b60200190565b600154811015610ee35760015f527fb10e2d527612073b26eecdfd717e6a320cf44b4afac2b0732d9fcbe2b7fa0cf601905f90565b634e487b7160e01b5f52603260045260245ffd5b8051821015610ee35760209160051b010190565b9291926001600160401b0382116104365760405191610f34601f8201601f191660200184610d3f565b82948184528183011161082e578281602093845f960137010152565b908060209392818452848401375f828201840152601f01601f191601019056fea26469706673582212208d645db10260512e2fad718fabc1b7fb84df9907248964ca733f018830df5e3d64736f6c63430008180033","opcodes":"PUSH1 0x80 DUP1 PUSH1 0x40 MSTORE CALLVALUE PUSH2 0x1A JUMPI PUSH1 0x1 PUSH0 SSTORE PUSH2 0xFA6 SWAP1 DUP2 PUSH2 0x1F DUP3 CODECOPY RETURN JUMPDEST PUSH0 DUP1 REVERT INVALID PUSH1 0x80 PUSH1 0x40 MSTORE PUSH1 0x4 CALLDATASIZE LT ISZERO PUSH2 0x11 JUMPI PUSH0 DUP1 REVERT JUMPDEST PUSH1 0xE0 PUSH0 CALLDATALOAD PUSH1 0xE0 SHR SWAP1 DUP2 PUSH4 0x48D0ECA2 EQ PUSH2 0xAE1 JUMPI DUP2 PUSH4 0xEB44FDD3 EQ PUSH2 0x9EA JUMPI DUP2 PUSH4 0xEC2C9016 EQ PUSH2 0x832 JUMPI POP PUSH4 0xF40BC9FB EQ PUSH2 0x49 JUMPI PUSH0 DUP1 REVERT JUMPDEST CALLVALUE PUSH2 0x82E JUMPI PUSH1 0xE0 CALLDATASIZE PUSH1 0x3 NOT ADD SLT PUSH2 0x82E JUMPI PUSH1 0x4 CALLDATALOAD PUSH1 0x1 PUSH1 0x1 PUSH1 0x40 SHL SUB DUP2 GT PUSH2 0x82E JUMPI PUSH2 0x79 SWAP1 CALLDATASIZE SWAP1 PUSH1 0x4 ADD PUSH2 0xC9F JUMP JUMPDEST PUSH1 0x24 CALLDATALOAD PUSH1 0x1 PUSH1 0x1 PUSH1 0x40 SHL SUB DUP2 GT PUSH2 0x82E JUMPI PUSH2 0x98 SWAP1 CALLDATASIZE SWAP1 PUSH1 0x4 ADD PUSH2 0xC9F JUMP JUMPDEST SWAP3 SWAP1 SWAP2 PUSH1 0x44 CALLDATALOAD PUSH1 0x1 PUSH1 0x1 PUSH1 0x40 SHL SUB DUP2 GT PUSH2 0x82E JUMPI PUSH2 0xBA SWAP1 CALLDATASIZE SWAP1 PUSH1 0x4 ADD PUSH2 0xC9F JUMP JUMPDEST SWAP1 SWAP5 PUSH1 0xC4 CALLDATALOAD PUSH1 0x1 PUSH1 0x1 PUSH1 0x40 SHL SUB DUP2 GT PUSH2 0x82E JUMPI PUSH2 0xDB SWAP1 CALLDATASIZE SWAP1 PUSH1 0x4 ADD PUSH2 0xC9F JUMP JUMPDEST SWAP5 SWAP1 SWAP4 DUP1 ISZERO PUSH2 0x7F5 JUMPI DUP4 ISZERO PUSH2 0x7BE JUMPI TIMESTAMP PUSH1 0x84 CALLDATALOAD GT ISZERO PUSH2 0x786 JUMPI PUSH0 SLOAD SWAP7 PUSH0 NOT DUP9 EQ PUSH2 0x772 JUMPI PUSH1 0x1 DUP9 ADD PUSH0 SSTORE PUSH1 0x40 MLOAD PUSH2 0x111 DUP2 PUSH2 0xD23 JUMP JUMPDEST DUP9 DUP2 MSTORE PUSH2 0x11F CALLDATASIZE DUP5 DUP7 PUSH2 0xF0B JUMP JUMPDEST PUSH1 0x20 DUP3 ADD MSTORE PUSH2 0x12F CALLDATASIZE DUP7 DUP5 PUSH2 0xF0B JUMP JUMPDEST PUSH1 0x40 DUP3 ADD MSTORE PUSH2 0x13F CALLDATASIZE DUP8 DUP13 PUSH2 0xF0B JUMP JUMPDEST PUSH1 0x60 DUP3 ADD MSTORE PUSH1 0x64 CALLDATALOAD PUSH1 0x80 DUP3 ADD MSTORE PUSH1 0x84 CALLDATALOAD PUSH1 0xA0 DUP3 ADD MSTORE TIMESTAMP PUSH1 0xC0 DUP3 ADD MSTORE PUSH0 PUSH1 0xE0 DUP3 ADD MSTORE CALLER PUSH2 0x100 DUP3 ADD MSTORE PUSH1 0xA4 CALLDATALOAD PUSH2 0x120 DUP3 ADD MSTORE PUSH2 0x17B CALLDATASIZE DUP10 DUP10 PUSH2 0xF0B JUMP JUMPDEST PUSH2 0x140 DUP3 ADD MSTORE DUP9 PUSH0 MSTORE PUSH1 0x2 PUSH1 0x20 MSTORE PUSH1 0x40 PUSH0 KECCAK256 SWAP1 DUP1 MLOAD DUP3 SSTORE PUSH1 0x20 DUP2 ADD MLOAD DUP1 MLOAD SWAP1 PUSH1 0x1 PUSH1 0x1 PUSH1 0x40 SHL SUB DUP3 GT PUSH2 0x436 JUMPI DUP2 SWAP1 PUSH2 0x1B7 PUSH1 0x1 DUP7 ADD SLOAD PUSH2 0xDB1 JUMP JUMPDEST PUSH1 0x1F DUP2 GT PUSH2 0x722 JUMPI JUMPDEST POP PUSH1 0x20 SWAP1 PUSH1 0x1F DUP4 GT PUSH1 0x1 EQ PUSH2 0x6B4 JUMPI PUSH0 SWAP3 PUSH2 0x6A9 JUMPI JUMPDEST POP POP DUP2 PUSH1 0x1 SHL SWAP2 PUSH0 NOT SWAP1 PUSH1 0x3 SHL SHR NOT AND OR PUSH1 0x1 DUP4 ADD SSTORE JUMPDEST PUSH1 0x40 DUP2 ADD MLOAD DUP1 MLOAD SWAP1 PUSH1 0x1 PUSH1 0x1 PUSH1 0x40 SHL SUB DUP3 GT PUSH2 0x436 JUMPI DUP2 SWAP1 PUSH2 0x212 PUSH1 0x2 DUP7 ADD SLOAD PUSH2 0xDB1 JUMP JUMPDEST PUSH1 0x1F DUP2 GT PUSH2 0x659 JUMPI JUMPDEST POP PUSH1 0x20 SWAP1 PUSH1 0x1F DUP4 GT PUSH1 0x1 EQ PUSH2 0x5EB JUMPI PUSH0 SWAP3 PUSH2 0x5E0 JUMPI JUMPDEST POP POP DUP2 PUSH1 0x1 SHL SWAP2 PUSH0 NOT SWAP1 PUSH1 0x3 SHL SHR NOT AND OR PUSH1 0x2 DUP4 ADD SSTORE JUMPDEST PUSH1 0x60 DUP2 ADD MLOAD DUP1 MLOAD SWAP1 PUSH1 0x1 PUSH1 0x1 PUSH1 0x40 SHL SUB DUP3 GT PUSH2 0x436 JUMPI DUP2 SWAP1 PUSH2 0x26D PUSH1 0x3 DUP7 ADD SLOAD PUSH2 0xDB1 JUMP JUMPDEST PUSH1 0x1F DUP2 GT PUSH2 0x590 JUMPI JUMPDEST POP PUSH1 0x20 SWAP1 PUSH1 0x1F DUP4 GT PUSH1 0x1 EQ PUSH2 0x522 JUMPI PUSH0 SWAP3 PUSH2 0x517 JUMPI JUMPDEST POP POP DUP2 PUSH1 0x1 SHL SWAP2 PUSH0 NOT SWAP1 PUSH1 0x3 SHL SHR NOT AND OR PUSH1 0x3 DUP4 ADD SSTORE JUMPDEST PUSH1 0x80 DUP2 ADD MLOAD PUSH1 0x4 DUP4 ADD SSTORE PUSH1 0xA0 DUP2 ADD MLOAD PUSH1 0x5 DUP4 ADD SSTORE PUSH1 0xC0 DUP2 ADD MLOAD PUSH1 0x6 DUP4 ADD SSTORE PUSH1 0x7 DUP3 ADD SWAP1 PUSH1 0xE0 DUP2 ADD MLOAD SWAP2 PUSH1 0x4 DUP4 LT ISZERO PUSH2 0x503 JUMPI PUSH2 0x2E2 PUSH2 0x140 SWAP4 DUP3 PUSH2 0xD0B JUMP JUMPDEST PUSH2 0x100 DUP3 ADD MLOAD DUP2 SLOAD PUSH2 0x100 PUSH1 0x1 PUSH1 0xA8 SHL SUB NOT AND PUSH1 0x8 SWAP2 DUP3 SHL PUSH2 0x100 PUSH1 0x1 PUSH1 0xA8 SHL SUB AND OR SWAP1 SWAP2 SSTORE PUSH2 0x120 DUP3 ADD MLOAD SWAP1 DUP5 ADD SSTORE ADD MLOAD DUP1 MLOAD SWAP1 PUSH1 0x1 PUSH1 0x1 PUSH1 0x40 SHL SUB DUP3 GT PUSH2 0x436 JUMPI PUSH2 0x332 PUSH1 0x9 DUP5 ADD SLOAD PUSH2 0xDB1 JUMP JUMPDEST PUSH1 0x1F DUP2 GT PUSH2 0x4BF JUMPI JUMPDEST POP PUSH1 0x20 SWAP1 PUSH1 0x1F DUP4 GT PUSH1 0x1 EQ PUSH2 0x455 JUMPI PUSH1 0x9 SWAP3 SWAP2 PUSH0 SWAP2 DUP4 PUSH2 0x44A JUMPI JUMPDEST POP POP DUP2 PUSH1 0x1 SHL SWAP2 PUSH0 NOT SWAP1 PUSH1 0x3 SHL SHR NOT AND OR SWAP2 ADD SSTORE JUMPDEST PUSH1 0x1 SLOAD SWAP4 PUSH9 0x10000000000000000 DUP6 LT ISZERO PUSH2 0x436 JUMPI PUSH1 0x20 SWAP10 DUP10 SWAP7 PUSH2 0x3FA PUSH2 0x42B SWAP5 PUSH2 0x408 SWAP5 PUSH2 0x3C1 DUP11 PUSH1 0x1 PUSH32 0xCD0A61F6247C75E1D6FF75ADE7FC138CFBD35F664E59BFA6348EEB0521DC5966 SWAP13 ADD PUSH1 0x1 SSTORE PUSH2 0xEAE JUMP JUMPDEST DUP2 SLOAD SWAP1 PUSH1 0x3 SHL SWAP1 DUP14 DUP3 SHL SWAP2 PUSH0 NOT SWAP1 SHL NOT AND OR SWAP1 SSTORE PUSH2 0x3EC PUSH1 0x40 MLOAD SWAP10 DUP11 SWAP10 PUSH1 0xC0 DUP12 MSTORE PUSH1 0xC0 DUP12 ADD SWAP2 PUSH2 0xF50 JUMP JUMPDEST SWAP2 DUP9 DUP4 SUB PUSH1 0x20 DUP11 ADD MSTORE PUSH2 0xF50 JUMP JUMPDEST SWAP2 DUP6 DUP4 SUB PUSH1 0x40 DUP8 ADD MSTORE PUSH2 0xF50 JUMP JUMPDEST PUSH1 0x84 CALLDATALOAD PUSH1 0x60 DUP5 ADD MSTORE PUSH1 0xA4 CALLDATALOAD PUSH1 0x80 DUP5 ADD MSTORE DUP3 DUP2 SUB PUSH1 0xA0 DUP5 ADD MSTORE CALLER SWAP8 PUSH1 0x64 CALLDATALOAD SWAP8 PUSH2 0xF50 JUMP JUMPDEST SUB SWAP1 LOG4 PUSH1 0x40 MLOAD SWAP1 DUP2 MSTORE RETURN JUMPDEST PUSH4 0x4E487B71 PUSH1 0xE0 SHL PUSH0 MSTORE PUSH1 0x41 PUSH1 0x4 MSTORE PUSH1 0x24 PUSH0 REVERT JUMPDEST ADD MLOAD SWAP1 POP PUSH0 DUP1 PUSH2 0x356 JUMP JUMPDEST SWAP1 PUSH1 0x1F NOT DUP4 AND SWAP2 PUSH1 0x9 DUP6 ADD PUSH0 MSTORE PUSH1 0x20 PUSH0 KECCAK256 SWAP3 PUSH0 JUMPDEST DUP2 DUP2 LT PUSH2 0x4A7 JUMPI POP SWAP2 PUSH1 0x1 SWAP4 SWAP2 DUP6 PUSH1 0x9 SWAP7 SWAP5 LT PUSH2 0x48F JUMPI JUMPDEST POP POP POP DUP2 SHL ADD SWAP2 ADD SSTORE PUSH2 0x36B JUMP JUMPDEST ADD MLOAD PUSH0 NOT PUSH1 0xF8 DUP5 PUSH1 0x3 SHL AND SHR NOT AND SWAP1 SSTORE PUSH0 DUP1 DUP1 PUSH2 0x481 JUMP JUMPDEST SWAP3 SWAP4 PUSH1 0x20 PUSH1 0x1 DUP2 SWAP3 DUP8 DUP7 ADD MLOAD DUP2 SSTORE ADD SWAP6 ADD SWAP4 ADD PUSH2 0x469 JUMP JUMPDEST PUSH1 0x9 DUP5 ADD PUSH0 MSTORE PUSH1 0x20 PUSH0 KECCAK256 PUSH1 0x1F DUP5 ADD PUSH1 0x5 SHR DUP2 ADD PUSH1 0x20 DUP6 LT PUSH2 0x4FC JUMPI JUMPDEST PUSH1 0x1F DUP4 ADD PUSH1 0x5 SHR DUP3 ADD DUP2 LT PUSH2 0x4F1 JUMPI POP POP PUSH2 0x33B JUMP JUMPDEST PUSH0 DUP2 SSTORE PUSH1 0x1 ADD PUSH2 0x4DB JUMP JUMPDEST POP DUP1 PUSH2 0x4DB JUMP JUMPDEST PUSH4 0x4E487B71 PUSH1 0xE0 SHL PUSH0 MSTORE PUSH1 0x21 PUSH1 0x4 MSTORE PUSH1 0x24 PUSH0 REVERT JUMPDEST ADD MLOAD SWAP1 POP PUSH0 DUP1 PUSH2 0x28C JUMP JUMPDEST SWAP3 POP PUSH1 0x3 DUP6 ADD PUSH0 MSTORE PUSH1 0x20 PUSH0 KECCAK256 SWAP1 PUSH0 SWAP4 JUMPDEST PUSH1 0x1F NOT DUP5 AND DUP6 LT PUSH2 0x575 JUMPI PUSH1 0x1 SWAP5 POP DUP4 PUSH1 0x1F NOT DUP2 AND LT PUSH2 0x55D JUMPI JUMPDEST POP POP POP DUP2 SHL ADD PUSH1 0x3 DUP4 ADD SSTORE PUSH2 0x2A3 JUMP JUMPDEST ADD MLOAD PUSH0 NOT PUSH1 0xF8 DUP5 PUSH1 0x3 SHL AND SHR NOT AND SWAP1 SSTORE PUSH0 DUP1 DUP1 PUSH2 0x54D JUMP JUMPDEST DUP2 DUP2 ADD MLOAD DUP4 SSTORE PUSH1 0x20 SWAP5 DUP6 ADD SWAP5 PUSH1 0x1 SWAP1 SWAP4 ADD SWAP3 SWAP1 SWAP2 ADD SWAP1 PUSH2 0x532 JUMP JUMPDEST SWAP1 SWAP2 POP PUSH1 0x3 DUP6 ADD PUSH0 MSTORE PUSH1 0x20 PUSH0 KECCAK256 PUSH1 0x1F DUP5 ADD PUSH1 0x5 SHR DUP2 ADD PUSH1 0x20 DUP6 LT PUSH2 0x5D9 JUMPI JUMPDEST SWAP1 DUP5 SWAP4 SWAP3 SWAP2 JUMPDEST PUSH1 0x1F DUP4 ADD PUSH1 0x5 SHR DUP3 ADD DUP2 LT PUSH2 0x5CB JUMPI POP POP PUSH2 0x276 JUMP JUMPDEST PUSH0 DUP2 SSTORE DUP6 SWAP5 POP PUSH1 0x1 ADD PUSH2 0x5B5 JUMP JUMPDEST POP DUP1 PUSH2 0x5AF JUMP JUMPDEST ADD MLOAD SWAP1 POP PUSH0 DUP1 PUSH2 0x231 JUMP JUMPDEST SWAP3 POP PUSH1 0x2 DUP6 ADD PUSH0 MSTORE PUSH1 0x20 PUSH0 KECCAK256 SWAP1 PUSH0 SWAP4 JUMPDEST PUSH1 0x1F NOT DUP5 AND DUP6 LT PUSH2 0x63E JUMPI PUSH1 0x1 SWAP5 POP DUP4 PUSH1 0x1F NOT DUP2 AND LT PUSH2 0x626 JUMPI JUMPDEST POP POP POP DUP2 SHL ADD PUSH1 0x2 DUP4 ADD SSTORE PUSH2 0x248 JUMP JUMPDEST ADD MLOAD PUSH0 NOT PUSH1 0xF8 DUP5 PUSH1 0x3 SHL AND SHR NOT AND SWAP1 SSTORE PUSH0 DUP1 DUP1 PUSH2 0x616 JUMP JUMPDEST DUP2 DUP2 ADD MLOAD DUP4 SSTORE PUSH1 0x20 SWAP5 DUP6 ADD SWAP5 PUSH1 0x1 SWAP1 SWAP4 ADD SWAP3 SWAP1 SWAP2 ADD SWAP1 PUSH2 0x5FB JUMP JUMPDEST SWAP1 SWAP2 POP PUSH1 0x2 DUP6 ADD PUSH0 MSTORE PUSH1 0x20 PUSH0 KECCAK256 PUSH1 0x1F DUP5 ADD PUSH1 0x5 SHR DUP2 ADD PUSH1 0x20 DUP6 LT PUSH2 0x6A2 JUMPI JUMPDEST SWAP1 DUP5 SWAP4 SWAP3 SWAP2 JUMPDEST PUSH1 0x1F DUP4 ADD PUSH1 0x5 SHR DUP3 ADD DUP2 LT PUSH2 0x694 JUMPI POP POP PUSH2 0x21B JUMP JUMPDEST PUSH0 DUP2 SSTORE DUP6 SWAP5 POP PUSH1 0x1 ADD PUSH2 0x67E JUMP JUMPDEST POP DUP1 PUSH2 0x678 JUMP JUMPDEST ADD MLOAD SWAP1 POP PUSH0 DUP1 PUSH2 0x1D6 JUMP JUMPDEST SWAP3 POP PUSH1 0x1 DUP6 ADD PUSH0 MSTORE PUSH1 0x20 PUSH0 KECCAK256 SWAP1 PUSH0 SWAP4 JUMPDEST PUSH1 0x1F NOT DUP5 AND DUP6 LT PUSH2 0x707 JUMPI PUSH1 0x1 SWAP5 POP DUP4 PUSH1 0x1F NOT DUP2 AND LT PUSH2 0x6EF JUMPI JUMPDEST POP POP POP DUP2 SHL ADD PUSH1 0x1 DUP4 ADD SSTORE PUSH2 0x1ED JUMP JUMPDEST ADD MLOAD PUSH0 NOT PUSH1 0xF8 DUP5 PUSH1 0x3 SHL AND SHR NOT AND SWAP1 SSTORE PUSH0 DUP1 DUP1 PUSH2 0x6DF JUMP JUMPDEST DUP2 DUP2 ADD MLOAD DUP4 SSTORE PUSH1 0x20 SWAP5 DUP6 ADD SWAP5 PUSH1 0x1 SWAP1 SWAP4 ADD SWAP3 SWAP1 SWAP2 ADD SWAP1 PUSH2 0x6C4 JUMP JUMPDEST SWAP1 SWAP2 POP PUSH1 0x1 DUP6 ADD PUSH0 MSTORE PUSH1 0x20 PUSH0 KECCAK256 PUSH1 0x1F DUP5 ADD PUSH1 0x5 SHR DUP2 ADD PUSH1 0x20 DUP6 LT PUSH2 0x76B JUMPI JUMPDEST SWAP1 DUP5 SWAP4 SWAP3 SWAP2 JUMPDEST PUSH1 0x1F DUP4 ADD PUSH1 0x5 SHR DUP3 ADD DUP2 LT PUSH2 0x75D JUMPI POP POP PUSH2 0x1C0 JUMP JUMPDEST PUSH0 DUP2 SSTORE DUP6 SWAP5 POP PUSH1 0x1 ADD PUSH2 0x747 JUMP JUMPDEST POP DUP1 PUSH2 0x741 JUMP JUMPDEST PUSH4 0x4E487B71 PUSH1 0xE0 SHL PUSH0 MSTORE PUSH1 0x11 PUSH1 0x4 MSTORE PUSH1 0x24 PUSH0 REVERT JUMPDEST PUSH1 0x40 MLOAD PUSH3 0x461BCD PUSH1 0xE5 SHL DUP2 MSTORE PUSH1 0x20 PUSH1 0x4 DUP3 ADD MSTORE PUSH1 0x10 PUSH1 0x24 DUP3 ADD MSTORE PUSH16 0x111150511312539157D25397D41054D5 PUSH1 0x82 SHL PUSH1 0x44 DUP3 ADD MSTORE PUSH1 0x64 SWAP1 REVERT JUMPDEST PUSH1 0x40 MLOAD PUSH3 0x461BCD PUSH1 0xE5 SHL DUP2 MSTORE PUSH1 0x20 PUSH1 0x4 DUP3 ADD MSTORE PUSH1 0xF PUSH1 0x24 DUP3 ADD MSTORE PUSH15 0x14D3D55490D157D491545552549151 PUSH1 0x8A SHL PUSH1 0x44 DUP3 ADD MSTORE PUSH1 0x64 SWAP1 REVERT JUMPDEST PUSH1 0x40 MLOAD PUSH3 0x461BCD PUSH1 0xE5 SHL DUP2 MSTORE PUSH1 0x20 PUSH1 0x4 DUP3 ADD MSTORE PUSH1 0x11 PUSH1 0x24 DUP3 ADD MSTORE PUSH17 0x14555154D51253D397D491545552549151 PUSH1 0x7A SHL PUSH1 0x44 DUP3 ADD MSTORE PUSH1 0x64 SWAP1 REVERT JUMPDEST PUSH0 DUP1 REVERT JUMPDEST CALLVALUE PUSH2 0x82E JUMPI PUSH0 CALLDATASIZE PUSH1 0x3 NOT ADD SLT PUSH2 0x82E JUMPI PUSH1 0x1 SWAP1 PUSH1 0x1 SLOAD SWAP2 PUSH2 0x852 DUP4 PUSH2 0xE97 JUMP JUMPDEST SWAP3 PUSH2 0x860 PUSH1 0x40 MLOAD SWAP5 DUP6 PUSH2 0xD3F JUMP JUMPDEST DUP1 DUP5 MSTORE PUSH2 0x86C DUP2 PUSH2 0xE97 JUMP JUMPDEST PUSH1 0x20 SWAP4 SWAP1 PUSH1 0x1F NOT ADD PUSH0 JUMPDEST DUP2 DUP2 LT PUSH2 0x9CE JUMPI POP POP PUSH0 JUMPDEST DUP3 DUP2 LT PUSH2 0x8E9 JUMPI POP POP POP PUSH1 0x40 MLOAD SWAP2 DUP1 DUP4 ADD DUP2 DUP5 MSTORE DUP5 MLOAD DUP1 SWAP2 MSTORE PUSH1 0x40 DUP5 ADD SWAP2 DUP1 PUSH1 0x40 DUP4 PUSH1 0x5 SHL DUP8 ADD ADD SWAP7 ADD SWAP3 PUSH0 SWAP1 JUMPDEST DUP4 DUP3 LT PUSH2 0x8BC JUMPI DUP7 DUP9 SUB DUP8 RETURN JUMPDEST SWAP1 SWAP2 SWAP3 SWAP4 SWAP5 DUP4 DUP1 PUSH2 0x8D8 DUP4 SWAP11 PUSH1 0x3F NOT DUP12 DUP3 SUB ADD DUP7 MSTORE DUP10 MLOAD PUSH2 0xBED JUMP JUMPDEST SWAP10 SWAP8 ADD SWAP6 SWAP5 SWAP4 SWAP2 SWAP1 SWAP2 ADD SWAP2 ADD PUSH2 0x8AF JUMP JUMPDEST SWAP1 DUP4 DUP3 DUP7 PUSH2 0x9A6 PUSH1 0x9 PUSH2 0x8FE DUP6 SWAP12 SWAP10 SWAP8 PUSH2 0xEAE JUMP JUMPDEST SWAP1 SLOAD PUSH1 0x3 SWAP2 DUP3 SHL SHR PUSH0 MSTORE PUSH2 0x94C PUSH1 0x2 SWAP2 DUP3 DUP7 MSTORE PUSH2 0x940 PUSH1 0x40 PUSH0 KECCAK256 SWAP4 PUSH1 0x40 MLOAD SWAP8 PUSH2 0x926 DUP10 PUSH2 0xD23 JUMP JUMPDEST DUP6 SLOAD DUP10 MSTORE PUSH2 0x935 DUP12 DUP8 ADD PUSH2 0xDE9 JUMP JUMPDEST SWAP1 DUP10 ADD MSTORE DUP5 ADD PUSH2 0xDE9 JUMP JUMPDEST PUSH1 0x40 DUP8 ADD MSTORE DUP3 ADD PUSH2 0xDE9 JUMP JUMPDEST PUSH1 0x60 DUP6 ADD MSTORE PUSH1 0x4 DUP2 ADD SLOAD PUSH1 0x80 DUP6 ADD MSTORE PUSH1 0x5 DUP2 ADD SLOAD PUSH1 0xA0 DUP6 ADD MSTORE PUSH1 0x6 DUP2 ADD SLOAD PUSH1 0xC0 DUP6 ADD MSTORE PUSH1 0x7 DUP2 ADD SLOAD PUSH2 0x983 PUSH1 0xFF DUP3 AND DUP10 DUP8 ADD PUSH2 0xE8B JUMP JUMPDEST PUSH1 0x8 SWAP1 DUP2 SHR PUSH1 0x1 PUSH1 0x1 PUSH1 0xA0 SHL SUB AND PUSH2 0x100 DUP7 ADD MSTORE DUP2 ADD SLOAD PUSH2 0x120 DUP6 ADD MSTORE ADD PUSH2 0xDE9 JUMP JUMPDEST PUSH2 0x140 DUP3 ADD MSTORE PUSH2 0x9B6 DUP3 DUP9 PUSH2 0xEF7 JUMP JUMPDEST MSTORE PUSH2 0x9C1 DUP2 DUP8 PUSH2 0xEF7 JUMP JUMPDEST POP ADD SWAP1 SWAP2 POP SWAP5 SWAP3 SWAP5 PUSH2 0x881 JUMP JUMPDEST DUP6 SWAP1 PUSH2 0x9DB SWAP8 SWAP6 SWAP8 PUSH2 0xD60 JUMP JUMPDEST DUP3 DUP3 DUP9 ADD ADD MSTORE ADD SWAP6 SWAP4 SWAP6 PUSH2 0x876 JUMP JUMPDEST CALLVALUE PUSH2 0x82E JUMPI PUSH1 0x20 CALLDATASIZE PUSH1 0x3 NOT ADD SLT PUSH2 0x82E JUMPI PUSH2 0xA03 PUSH2 0xD60 JUMP JUMPDEST POP PUSH1 0x4 CALLDATALOAD PUSH0 MSTORE PUSH1 0x2 PUSH1 0x20 MSTORE PUSH2 0xADD PUSH1 0x40 PUSH0 KECCAK256 PUSH2 0xAC9 PUSH1 0x40 MLOAD SWAP2 PUSH2 0xA25 DUP4 PUSH2 0xD23 JUMP JUMPDEST DUP1 SLOAD DUP4 MSTORE PUSH2 0xA35 PUSH1 0x1 DUP3 ADD PUSH2 0xDE9 JUMP JUMPDEST PUSH1 0x20 DUP5 ADD MSTORE PUSH2 0xA46 PUSH1 0x2 DUP3 ADD PUSH2 0xDE9 JUMP JUMPDEST PUSH1 0x40 DUP5 ADD MSTORE PUSH2 0xA57 PUSH1 0x3 DUP3 ADD PUSH2 0xDE9 JUMP JUMPDEST PUSH1 0x60 DUP5 ADD MSTORE PUSH1 0x4 DUP2 ADD SLOAD PUSH1 0x80 DUP5 ADD MSTORE PUSH1 0x5 DUP2 ADD SLOAD PUSH1 0xA0 DUP5 ADD MSTORE PUSH1 0x6 DUP2 ADD SLOAD PUSH1 0xC0 DUP5 ADD MSTORE PUSH1 0x7 DUP2 ADD SLOAD PUSH2 0xA8F PUSH1 0xFF DUP3 AND PUSH1 0xE0 DUP7 ADD PUSH2 0xE8B JUMP JUMPDEST PUSH2 0xABA PUSH1 0x9 PUSH1 0x1 DUP1 PUSH1 0xA0 SHL SUB SWAP4 DUP5 PUSH2 0x100 DUP9 ADD SWAP5 PUSH1 0x8 SHR AND DUP5 MSTORE PUSH1 0x8 DUP2 ADD SLOAD PUSH2 0x120 DUP9 ADD MSTORE ADD PUSH2 0xDE9 JUMP JUMPDEST PUSH2 0x140 DUP6 ADD MSTORE MLOAD AND ISZERO ISZERO PUSH2 0xCCC JUMP JUMPDEST PUSH1 0x40 MLOAD SWAP2 DUP3 SWAP2 PUSH1 0x20 DUP4 MSTORE PUSH1 0x20 DUP4 ADD SWAP1 PUSH2 0xBED JUMP JUMPDEST SUB SWAP1 RETURN JUMPDEST CALLVALUE PUSH2 0x82E JUMPI PUSH1 0x40 CALLDATASIZE PUSH1 0x3 NOT ADD SLT PUSH2 0x82E JUMPI PUSH1 0x4 CALLDATALOAD PUSH1 0x24 CALLDATALOAD PUSH1 0x4 DUP2 LT ISZERO PUSH2 0x82E JUMPI PUSH0 DUP3 DUP2 MSTORE PUSH1 0x2 PUSH1 0x20 MSTORE PUSH1 0x40 SWAP1 KECCAK256 PUSH1 0x7 ADD DUP1 SLOAD PUSH1 0x8 SHR PUSH1 0x1 PUSH1 0x1 PUSH1 0xA0 SHL SUB AND PUSH2 0xB2A DUP2 ISZERO ISZERO PUSH2 0xCCC JUMP JUMPDEST CALLER SUB PUSH2 0xB6E JUMPI DUP2 PUSH2 0xB5E PUSH32 0xD067EBF1565B7B7F7E3C08CCB7F355DEFC06FD6A3E5E3DA1F0A43C8A235350AC SWAP4 PUSH1 0x20 SWAP4 PUSH2 0xD0B JUMP JUMPDEST PUSH2 0xB6B PUSH1 0x40 MLOAD DUP1 SWAP3 PUSH2 0xBE0 JUMP JUMPDEST LOG2 STOP JUMPDEST PUSH1 0x40 MLOAD PUSH3 0x461BCD PUSH1 0xE5 SHL DUP2 MSTORE PUSH1 0x20 PUSH1 0x4 DUP3 ADD MSTORE PUSH1 0xC PUSH1 0x24 DUP3 ADD MSTORE PUSH12 0x27A7262CAFA1A922A0AA27A9 PUSH1 0xA1 SHL PUSH1 0x44 DUP3 ADD MSTORE PUSH1 0x64 SWAP1 REVERT JUMPDEST SWAP2 SWAP1 DUP3 MLOAD SWAP3 DUP4 DUP3 MSTORE PUSH0 JUMPDEST DUP5 DUP2 LT PUSH2 0xBCC JUMPI POP POP DUP3 PUSH0 PUSH1 0x20 DUP1 SWAP5 SWAP6 DUP5 ADD ADD MSTORE PUSH1 0x1F DUP1 NOT SWAP2 ADD AND ADD ADD SWAP1 JUMP JUMPDEST PUSH1 0x20 DUP2 DUP4 ADD DUP2 ADD MLOAD DUP5 DUP4 ADD DUP3 ADD MSTORE ADD PUSH2 0xBAC JUMP JUMPDEST SWAP1 PUSH1 0x4 DUP3 LT ISZERO PUSH2 0x503 JUMPI MSTORE JUMP JUMPDEST SWAP1 PUSH2 0xC9C SWAP2 PUSH2 0xC3A PUSH2 0xC28 PUSH2 0xC16 PUSH2 0x160 DUP5 MLOAD DUP7 MSTORE PUSH1 0x20 DUP6 ADD MLOAD SWAP1 DUP1 PUSH1 0x20 DUP9 ADD MSTORE DUP7 ADD SWAP1 PUSH2 0xBA2 JUMP JUMPDEST PUSH1 0x40 DUP5 ADD MLOAD DUP6 DUP3 SUB PUSH1 0x40 DUP8 ADD MSTORE PUSH2 0xBA2 JUMP JUMPDEST PUSH1 0x60 DUP4 ADD MLOAD DUP5 DUP3 SUB PUSH1 0x60 DUP7 ADD MSTORE PUSH2 0xBA2 JUMP JUMPDEST SWAP2 PUSH1 0x80 DUP3 ADD MLOAD PUSH1 0x80 DUP3 ADD MSTORE PUSH1 0xA0 DUP3 ADD MLOAD PUSH1 0xA0 DUP3 ADD MSTORE PUSH1 0xC0 DUP3 ADD MLOAD PUSH1 0xC0 DUP3 ADD MSTORE PUSH2 0xC6B PUSH1 0xE0 DUP4 ADD MLOAD PUSH1 0xE0 DUP4 ADD SWAP1 PUSH2 0xBE0 JUMP JUMPDEST PUSH2 0x100 PUSH1 0x1 DUP1 PUSH1 0xA0 SHL SUB DUP2 DUP5 ADD MLOAD AND SWAP1 DUP3 ADD MSTORE PUSH2 0x120 DUP1 DUP4 ADD MLOAD SWAP1 DUP3 ADD MSTORE PUSH2 0x140 DUP1 SWAP3 ADD MLOAD SWAP2 DUP2 DUP5 SUB SWAP2 ADD MSTORE PUSH2 0xBA2 JUMP JUMPDEST SWAP1 JUMP JUMPDEST SWAP2 DUP2 PUSH1 0x1F DUP5 ADD SLT ISZERO PUSH2 0x82E JUMPI DUP3 CALLDATALOAD SWAP2 PUSH1 0x1 PUSH1 0x1 PUSH1 0x40 SHL SUB DUP4 GT PUSH2 0x82E JUMPI PUSH1 0x20 DUP4 DUP2 DUP7 ADD SWAP6 ADD ADD GT PUSH2 0x82E JUMPI JUMP JUMPDEST ISZERO PUSH2 0xCD3 JUMPI JUMP JUMPDEST PUSH1 0x40 MLOAD PUSH3 0x461BCD PUSH1 0xE5 SHL DUP2 MSTORE PUSH1 0x20 PUSH1 0x4 DUP3 ADD MSTORE PUSH1 0x10 PUSH1 0x24 DUP3 ADD MSTORE PUSH16 0x13505492D15517D393D517D193D55391 PUSH1 0x82 SHL PUSH1 0x44 DUP3 ADD MSTORE PUSH1 0x64 SWAP1 REVERT JUMPDEST SWAP1 PUSH1 0x4 DUP2 LT ISZERO PUSH2 0x503 JUMPI PUSH1 0xFF DUP1 NOT DUP4 SLOAD AND SWAP2 AND OR SWAP1 SSTORE JUMP JUMPDEST PUSH2 0x160 DUP2 ADD SWAP1 DUP2 LT PUSH1 0x1 PUSH1 0x1 PUSH1 0x40 SHL SUB DUP3 GT OR PUSH2 0x436 JUMPI PUSH1 0x40 MSTORE JUMP JUMPDEST SWAP1 PUSH1 0x1F DUP1 NOT SWAP2 ADD AND DUP2 ADD SWAP1 DUP2 LT PUSH1 0x1 PUSH1 0x1 PUSH1 0x40 SHL SUB DUP3 GT OR PUSH2 0x436 JUMPI PUSH1 0x40 MSTORE JUMP JUMPDEST PUSH1 0x40 MLOAD SWAP1 PUSH2 0xD6D DUP3 PUSH2 0xD23 JUMP JUMPDEST PUSH1 0x60 PUSH2 0x140 DUP4 PUSH0 DUP2 MSTORE DUP3 PUSH1 0x20 DUP3 ADD MSTORE DUP3 PUSH1 0x40 DUP3 ADD MSTORE DUP3 DUP1 DUP3 ADD MSTORE PUSH0 PUSH1 0x80 DUP3 ADD MSTORE PUSH0 PUSH1 0xA0 DUP3 ADD MSTORE PUSH0 PUSH1 0xC0 DUP3 ADD MSTORE PUSH0 PUSH1 0xE0 DUP3 ADD MSTORE PUSH0 PUSH2 0x100 DUP3 ADD MSTORE PUSH0 PUSH2 0x120 DUP3 ADD MSTORE ADD MSTORE JUMP JUMPDEST SWAP1 PUSH1 0x1 DUP3 DUP2 SHR SWAP3 AND DUP1 ISZERO PUSH2 0xDDF JUMPI JUMPDEST PUSH1 0x20 DUP4 LT EQ PUSH2 0xDCB JUMPI JUMP JUMPDEST PUSH4 0x4E487B71 PUSH1 0xE0 SHL PUSH0 MSTORE PUSH1 0x22 PUSH1 0x4 MSTORE PUSH1 0x24 PUSH0 REVERT JUMPDEST SWAP2 PUSH1 0x7F AND SWAP2 PUSH2 0xDC0 JUMP JUMPDEST SWAP1 PUSH1 0x40 MLOAD SWAP2 DUP3 PUSH0 DUP3 SLOAD PUSH2 0xDFB DUP2 PUSH2 0xDB1 JUMP JUMPDEST SWAP1 DUP2 DUP5 MSTORE PUSH1 0x20 SWAP5 PUSH1 0x1 SWAP2 PUSH1 0x1 DUP2 AND SWAP1 DUP2 PUSH0 EQ PUSH2 0xE69 JUMPI POP PUSH1 0x1 EQ PUSH2 0xE2B JUMPI JUMPDEST POP POP POP PUSH2 0xE29 SWAP3 POP SUB DUP4 PUSH2 0xD3F JUMP JUMPDEST JUMP JUMPDEST PUSH0 SWAP1 DUP2 MSTORE DUP6 DUP2 KECCAK256 SWAP6 SWAP4 POP SWAP2 SWAP1 JUMPDEST DUP2 DUP4 LT PUSH2 0xE51 JUMPI POP POP PUSH2 0xE29 SWAP4 POP DUP3 ADD ADD PUSH0 DUP1 DUP1 PUSH2 0xE1A JUMP JUMPDEST DUP6 SLOAD DUP9 DUP5 ADD DUP6 ADD MSTORE SWAP5 DUP6 ADD SWAP5 DUP8 SWAP5 POP SWAP2 DUP4 ADD SWAP2 PUSH2 0xE38 JUMP JUMPDEST SWAP3 POP POP POP PUSH2 0xE29 SWAP5 SWAP3 POP PUSH1 0xFF NOT AND DUP3 DUP5 ADD MSTORE ISZERO ISZERO PUSH1 0x5 SHL DUP3 ADD ADD PUSH0 DUP1 DUP1 PUSH2 0xE1A JUMP JUMPDEST PUSH1 0x4 DUP3 LT ISZERO PUSH2 0x503 JUMPI MSTORE JUMP JUMPDEST PUSH1 0x1 PUSH1 0x1 PUSH1 0x40 SHL SUB DUP2 GT PUSH2 0x436 JUMPI PUSH1 0x5 SHL PUSH1 0x20 ADD SWAP1 JUMP JUMPDEST PUSH1 0x1 SLOAD DUP2 LT ISZERO PUSH2 0xEE3 JUMPI PUSH1 0x1 PUSH0 MSTORE PUSH32 0xB10E2D527612073B26EECDFD717E6A320CF44B4AFAC2B0732D9FCBE2B7FA0CF6 ADD SWAP1 PUSH0 SWAP1 JUMP JUMPDEST PUSH4 0x4E487B71 PUSH1 0xE0 SHL PUSH0 MSTORE PUSH1 0x32 PUSH1 0x4 MSTORE PUSH1 0x24 PUSH0 REVERT JUMPDEST DUP1 MLOAD DUP3 LT ISZERO PUSH2 0xEE3 JUMPI PUSH1 0x20 SWAP2 PUSH1 0x5 SHL ADD ADD SWAP1 JUMP JUMPDEST SWAP3 SWAP2 SWAP3 PUSH1 0x1 PUSH1 0x1 PUSH1 0x40 SHL SUB DUP3 GT PUSH2 0x436 JUMPI PUSH1 0x40 MLOAD SWAP2 PUSH2 0xF34 PUSH1 0x1F DUP3 ADD PUSH1 0x1F NOT AND PUSH1 0x20 ADD DUP5 PUSH2 0xD3F JUMP JUMPDEST DUP3 SWAP5 DUP2 DUP5 MSTORE DUP2 DUP4 ADD GT PUSH2 0x82E JUMPI DUP3 DUP2 PUSH1 0x20 SWAP4 DUP5 PUSH0 SWAP7 ADD CALLDATACOPY ADD ADD MSTORE JUMP JUMPDEST SWAP1 DUP1 PUSH1 0x20 SWAP4 SWAP3 DUP2 DUP5 MSTORE DUP5 DUP5 ADD CALLDATACOPY PUSH0 DUP3 DUP3 ADD DUP5 ADD MSTORE PUSH1 0x1F ADD PUSH1 0x1F NOT AND ADD ADD SWAP1 JUMP INVALID LOG2 PUSH5 0x6970667358 0x22 SLT KECCAK256 DUP14 PUSH5 0x5DB1026051 0x2E 0x2F 0xAD PUSH18 0x8FABC1B7FB84DF9907248964CA733F018830 0xDF MCOPY RETURNDATASIZE PUSH5 0x736F6C6343 STOP ADDMOD XOR STOP CALLER "},"methodIdentifiers":{"createMarket(string,string,string,bytes32,uint256,uint256,string)":"f40bc9fb","getMarket(uint256)":"eb44fdd3","getMarkets()":"ec2c9016","updateMarketStatus(uint256,uint8)":"48d0eca2"}}}}}