{"project/contracts/ReasoningReceiptRegistry.sol":{"ReasoningReceiptRegistry":{"abi":[{"anonymous":false,"inputs":[{"indexed":true,"internalType":"uint256","name":"receiptId","type":"uint256"},{"indexed":false,"internalType":"enum ReasoningReceiptRegistry.LifecycleState","name":"lifecycleState","type":"uint8"}],"name":"LifecycleUpdated","type":"event"},{"anonymous":false,"inputs":[{"indexed":true,"internalType":"uint256","name":"receiptId","type":"uint256"},{"indexed":false,"internalType":"string","name":"agentId","type":"string"},{"indexed":true,"internalType":"uint256","name":"marketId","type":"uint256"},{"indexed":true,"internalType":"bytes32","name":"reasoningHash","type":"bytes32"},{"indexed":false,"internalType":"uint16","name":"integrityScore","type":"uint16"},{"indexed":false,"internalType":"string","name":"decision","type":"string"}],"name":"ReceiptWritten","type":"event"},{"inputs":[{"internalType":"uint256","name":"receiptId","type":"uint256"}],"name":"getReceipt","outputs":[{"components":[{"internalType":"uint256","name":"receiptId","type":"uint256"},{"internalType":"string","name":"agentId","type":"string"},{"internalType":"uint256","name":"marketId","type":"uint256"},{"internalType":"bytes32","name":"signalHash","type":"bytes32"},{"internalType":"bytes32","name":"reasoningHash","type":"bytes32"},{"internalType":"uint16","name":"integrityScore","type":"uint16"},{"internalType":"uint16","name":"agentProbability","type":"uint16"},{"internalType":"uint16","name":"marketProbability","type":"uint16"},{"internalType":"int256","name":"edgeBps","type":"int256"},{"internalType":"uint256","name":"suggestedUsdcAmount","type":"uint256"},{"internalType":"string","name":"decision","type":"string"},{"internalType":"enum ReasoningReceiptRegistry.LifecycleState","name":"lifecycleState","type":"uint8"},{"internalType":"uint256","name":"timestamp","type":"uint256"},{"internalType":"address","name":"writer","type":"address"}],"internalType":"struct ReasoningReceiptRegistry.Receipt","name":"","type":"tuple"}],"stateMutability":"view","type":"function"},{"inputs":[{"internalType":"string","name":"agentId","type":"string"}],"name":"getReceiptsByAgent","outputs":[{"components":[{"internalType":"uint256","name":"receiptId","type":"uint256"},{"internalType":"string","name":"agentId","type":"string"},{"internalType":"uint256","name":"marketId","type":"uint256"},{"internalType":"bytes32","name":"signalHash","type":"bytes32"},{"internalType":"bytes32","name":"reasoningHash","type":"bytes32"},{"internalType":"uint16","name":"integrityScore","type":"uint16"},{"internalType":"uint16","name":"agentProbability","type":"uint16"},{"internalType":"uint16","name":"marketProbability","type":"uint16"},{"internalType":"int256","name":"edgeBps","type":"int256"},{"internalType":"uint256","name":"suggestedUsdcAmount","type":"uint256"},{"internalType":"string","name":"decision","type":"string"},{"internalType":"enum ReasoningReceiptRegistry.LifecycleState","name":"lifecycleState","type":"uint8"},{"internalType":"uint256","name":"timestamp","type":"uint256"},{"internalType":"address","name":"writer","type":"address"}],"internalType":"struct ReasoningReceiptRegistry.Receipt[]","name":"results","type":"tuple[]"}],"stateMutability":"view","type":"function"},{"inputs":[{"internalType":"uint256","name":"receiptId","type":"uint256"},{"internalType":"enum ReasoningReceiptRegistry.LifecycleState","name":"lifecycleState","type":"uint8"}],"name":"updateLifecycleState","outputs":[],"stateMutability":"nonpayable","type":"function"},{"inputs":[{"internalType":"string","name":"agentId","type":"string"},{"internalType":"uint256","name":"marketId","type":"uint256"},{"internalType":"bytes32","name":"signalHash","type":"bytes32"},{"internalType":"bytes32","name":"reasoningHash","type":"bytes32"},{"internalType":"uint16","name":"integrityScore","type":"uint16"},{"internalType":"uint16","name":"agentProbability","type":"uint16"},{"internalType":"uint16","name":"marketProbability","type":"uint16"},{"internalType":"int256","name":"edgeBps","type":"int256"},{"internalType":"uint256","name":"suggestedUsdcAmount","type":"uint256"},{"internalType":"string","name":"decision","type":"string"}],"name":"writeReceipt","outputs":[{"internalType":"uint256","name":"receiptId","type":"uint256"}],"stateMutability":"nonpayable","type":"function"}],"evm":{"bytecode":{"linkReferences":{},"object":"6080806040523461001a5760015f55610e55908161001f8239f35b5f80fdfe60806040526004361015610011575f80fd5b60e05f3560e01c90816331a294ee14610833575080635f4d654c146107af578063b63e6ac3146106955763dbfbc8e914610049575f80fd5b34610691576101403660031901126106915760043567ffffffffffffffff81116106915761007b903690600401610a69565b60843591606461ffff841684036106915760a4359061ffff821682036106915760c4359361ffff85168503610691576101243567ffffffffffffffff8111610691576100cb903690600401610a69565b949093821561065c578361ffff891611610622578361ffff8216116105e6578361ffff8816116105a9575f54965f1988146105955761ffff90600189015f55816040519361011885610ba8565b8a8552610126368888610be7565b60208601526024356040860152604435606086015287356080860152818c1660a08601521660c08401521660e082015260e43561010082015261010435610120820152610174368787610be7565b6101408201525f61016082015242610180820152336101a0820152865f52600160205260405f2081518155602082015180519067ffffffffffffffff82116103de5781906101c56001850154610cc1565b601f8111610545575b50602090601f83116001146104d7575f926104cc575b50508160011b915f199060031b1c19161760018201555b6040820151600282015560608201516003820155608082015160048201556005810161ffff60a08401511681549063ffff000060c086015160101b169065ffff0000000060e087015160201b169265ffffffffffff191617171790556101008201516006820155610120820151600782015561014082015180519067ffffffffffffffff82116103de5781906102946008850154610cc1565b601f811161047c575b50602090601f8311600114610411575f92610406575b50508160011b915f199060031b1c19161760088201555b6101608201519060058210156103f2576102e9600b9260098301610de7565b610180830151600a82015501906101a060018060a01b03910151166bffffffffffffffffffffffff60a01b825416179055610325368383610be7565b602081519101205f52600260205260405f20918254680100000000000000008110156103de57600181018085558110156103ca576020988895866103bf937f1030bdb9fc309af7d6a0dd29c97534f946da088d34a4fb695a855bd9123d379e975f528c5f20015561ffff6103a6604051968796606088526060880191610dff565b92168b8501528382036040850152359760243597610dff565b0390a4604051908152f35b634e487b7160e01b5f52603260045260245ffd5b634e487b7160e01b5f52604160045260245ffd5b634e487b7160e01b5f52602160045260245ffd5b015190505f806102b3565b600885015f908152602081209350601f198516905b818110610464575090846001959493921061044c575b505050811b0160088201556102ca565b01515f1960f88460031b161c191690555f808061043c565b92936020600181928786015181550195019301610426565b909150600884015f5260205f20601f840160051c8101602085106104c5575b90849392915b601f830160051c820181106104b757505061029d565b5f81558594506001016104a1565b508061049b565b015190505f806101e4565b9250600184015f5260205f20905f935b601f198416851061052a576001945083601f19811610610512575b505050811b0160018201556101fb565b01515f1960f88460031b161c191690555f8080610502565b818101518355602094850194600190930192909101906104e7565b909150600184015f5260205f20601f840160051c81016020851061058e575b90849392915b601f830160051c820181106105805750506101ce565b5f815585945060010161056a565b5080610564565b634e487b7160e01b5f52601160045260245ffd5b60405162461bcd60e51b81526020600482015260166024820152754241445f4d41524b45545f50524f424142494c49545960501b60448201528490fd5b60405162461bcd60e51b81526020600482015260156024820152744241445f4147454e545f50524f424142494c49545960581b60448201528490fd5b60405162461bcd60e51b81526020600482015260136024820152724241445f494e544547524954595f53434f524560681b60448201528490fd5b60405162461bcd60e51b815260206004820152600e60248201526d1051d1539517d49154555254915160921b60448201528490fd5b5f80fd5b3461069157602080600319360112610691576004356106b2610c45565b50805f52600182526106cc600a60405f2001541515610da7565b5f526001815260405f2090604051916106e483610ba8565b805483526106f460018201610cf9565b82840152600281015460408401526003810154606084015260048101546080840152600581015461ffff9081811660a0860152818160101c1660c0860152831c1660e08401526006810154610100840152600781015461012084015261075c60088201610cf9565b61014084015261077760ff6009830154166101608501610d9b565b600a810154610180840152600b01546001600160a01b03166101a08301526040518181529182916107ab9190830190610ae2565b0390f35b346106915760403660031901126106915760043560243560058110156106915760207f05793ae55a91f2e4613bfd41e271bf4378995073bfbe4cba18bede561586d39491835f526001825261080c600a60405f2001541515610da7565b835f526001825261082381600960405f2001610de7565b6108306040518092610ad5565ba2005b3461069157602090816003193601126106915760043567ffffffffffffffff811161069157610869610870913690600401610a69565b3691610be7565b8281519101205f526002906002835260405f20916040518084868296549384815201905f52865f20925f5b88828210610a53575050506108b292500384610bc5565b8251916108d76108c184610c2d565b936108cf6040519586610bc5565b808552610c2d565b601f1901855f5b828110610a3d575050505f5b84518110156109e0578061090060019287610cad565b515f528180885260405f206109266040519261091b84610ba8565b825484528201610cf9565b898301528581015460408301526003810154606083015260048101546080830152600581015461ffff9081811660a0850152818160101c1660c08501528a1c16858301526006810154610100830152600781015461012083015261098c60088201610cf9565b6101408301526109a760ff6009830154166101608401610d9b565b600a810154610180830152600b848060a01b03910154166101a08201526109ce8287610cad565b526109d98186610cad565b50016108ea565b6040805187815285518189018190525f92600582901b8301810191888b01918b9085015b828710610a115785850386f35b909192938280610a2d600193603f198a82030186528851610ae2565b9601920196019592919092610a04565b610a45610c45565b8282880101520186906108de565b855484526001958601958995509301920161089b565b9181601f840112156106915782359167ffffffffffffffff8311610691576020838186019501011161069157565b91908251928382525f5b848110610ac1575050825f602080949584010152601f8019910116010190565b602081830181015184830182015201610aa1565b9060058210156103f25752565b90610b73610b046101c084518452602085015190806020860152840190610a97565b60408401516040840152606084015160608401526080840151608084015260a084015161ffff80911660a08501528060c08601511660c085015260e08501511660e084015261010080850151908401526101208085015190840152610140808501519084830390850152610a97565b91610b876101608083015190840190610ad5565b61018081810151908301526101a0908101516001600160a01b031691015290565b6101c0810190811067ffffffffffffffff8211176103de57604052565b90601f8019910116810190811067ffffffffffffffff8211176103de57604052565b92919267ffffffffffffffff82116103de5760405191610c11601f8201601f191660200184610bc5565b829481845281830111610691578281602093845f960137010152565b67ffffffffffffffff81116103de5760051b60200190565b60405190610c5282610ba8565b5f6101a083828152606060208201528260408201528260608201528260808201528260a08201528260c08201528260e08201528261010082015282610120820152606061014082015282610160820152826101808201520152565b80518210156103ca5760209160051b010190565b90600182811c92168015610cef575b6020831014610cdb57565b634e487b7160e01b5f52602260045260245ffd5b91607f1691610cd0565b9060405191825f8254610d0b81610cc1565b908184526020946001916001811690815f14610d795750600114610d3b575b505050610d3992500383610bc5565b565b5f90815285812095935091905b818310610d61575050610d3993508201015f8080610d2a565b85548884018501529485019487945091830191610d48565b92505050610d3994925060ff191682840152151560051b8201015f8080610d2a565b60058210156103f25752565b15610dae57565b60405162461bcd60e51b8152602060048201526011602482015270149150d152541517d393d517d193d55391607a1b6044820152606490fd5b9060058110156103f25760ff80198354169116179055565b908060209392818452848401375f828201840152601f01601f191601019056fea2646970667358221220ae3efeaef3eebfb0d052b868f8e320249f4ba851a4770f87cd99fa1b8406d4fa64736f6c63430008180033","opcodes":"PUSH1 0x80 DUP1 PUSH1 0x40 MSTORE CALLVALUE PUSH2 0x1A JUMPI PUSH1 0x1 PUSH0 SSTORE PUSH2 0xE55 SWAP1 DUP2 PUSH2 0x1F DUP3 CODECOPY RETURN JUMPDEST PUSH0 DUP1 REVERT INVALID PUSH1 0x80 PUSH1 0x40 MSTORE PUSH1 0x4 CALLDATASIZE LT ISZERO PUSH2 0x11 JUMPI PUSH0 DUP1 REVERT JUMPDEST PUSH1 0xE0 PUSH0 CALLDATALOAD PUSH1 0xE0 SHR SWAP1 DUP2 PUSH4 0x31A294EE EQ PUSH2 0x833 JUMPI POP DUP1 PUSH4 0x5F4D654C EQ PUSH2 0x7AF JUMPI DUP1 PUSH4 0xB63E6AC3 EQ PUSH2 0x695 JUMPI PUSH4 0xDBFBC8E9 EQ PUSH2 0x49 JUMPI PUSH0 DUP1 REVERT JUMPDEST CALLVALUE PUSH2 0x691 JUMPI PUSH2 0x140 CALLDATASIZE PUSH1 0x3 NOT ADD SLT PUSH2 0x691 JUMPI PUSH1 0x4 CALLDATALOAD PUSH8 0xFFFFFFFFFFFFFFFF DUP2 GT PUSH2 0x691 JUMPI PUSH2 0x7B SWAP1 CALLDATASIZE SWAP1 PUSH1 0x4 ADD PUSH2 0xA69 JUMP JUMPDEST PUSH1 0x84 CALLDATALOAD SWAP2 PUSH1 0x64 PUSH2 0xFFFF DUP5 AND DUP5 SUB PUSH2 0x691 JUMPI PUSH1 0xA4 CALLDATALOAD SWAP1 PUSH2 0xFFFF DUP3 AND DUP3 SUB PUSH2 0x691 JUMPI PUSH1 0xC4 CALLDATALOAD SWAP4 PUSH2 0xFFFF DUP6 AND DUP6 SUB PUSH2 0x691 JUMPI PUSH2 0x124 CALLDATALOAD PUSH8 0xFFFFFFFFFFFFFFFF DUP2 GT PUSH2 0x691 JUMPI PUSH2 0xCB SWAP1 CALLDATASIZE SWAP1 PUSH1 0x4 ADD PUSH2 0xA69 JUMP JUMPDEST SWAP5 SWAP1 SWAP4 DUP3 ISZERO PUSH2 0x65C JUMPI DUP4 PUSH2 0xFFFF DUP10 AND GT PUSH2 0x622 JUMPI DUP4 PUSH2 0xFFFF DUP3 AND GT PUSH2 0x5E6 JUMPI DUP4 PUSH2 0xFFFF DUP9 AND GT PUSH2 0x5A9 JUMPI PUSH0 SLOAD SWAP7 PUSH0 NOT DUP9 EQ PUSH2 0x595 JUMPI PUSH2 0xFFFF SWAP1 PUSH1 0x1 DUP10 ADD PUSH0 SSTORE DUP2 PUSH1 0x40 MLOAD SWAP4 PUSH2 0x118 DUP6 PUSH2 0xBA8 JUMP JUMPDEST DUP11 DUP6 MSTORE PUSH2 0x126 CALLDATASIZE DUP9 DUP9 PUSH2 0xBE7 JUMP JUMPDEST PUSH1 0x20 DUP7 ADD MSTORE PUSH1 0x24 CALLDATALOAD PUSH1 0x40 DUP7 ADD MSTORE PUSH1 0x44 CALLDATALOAD PUSH1 0x60 DUP7 ADD MSTORE DUP8 CALLDATALOAD PUSH1 0x80 DUP7 ADD MSTORE DUP2 DUP13 AND PUSH1 0xA0 DUP7 ADD MSTORE AND PUSH1 0xC0 DUP5 ADD MSTORE AND PUSH1 0xE0 DUP3 ADD MSTORE PUSH1 0xE4 CALLDATALOAD PUSH2 0x100 DUP3 ADD MSTORE PUSH2 0x104 CALLDATALOAD PUSH2 0x120 DUP3 ADD MSTORE PUSH2 0x174 CALLDATASIZE DUP8 DUP8 PUSH2 0xBE7 JUMP JUMPDEST PUSH2 0x140 DUP3 ADD MSTORE PUSH0 PUSH2 0x160 DUP3 ADD MSTORE TIMESTAMP PUSH2 0x180 DUP3 ADD MSTORE CALLER PUSH2 0x1A0 DUP3 ADD MSTORE DUP7 PUSH0 MSTORE PUSH1 0x1 PUSH1 0x20 MSTORE PUSH1 0x40 PUSH0 KECCAK256 DUP2 MLOAD DUP2 SSTORE PUSH1 0x20 DUP3 ADD MLOAD DUP1 MLOAD SWAP1 PUSH8 0xFFFFFFFFFFFFFFFF DUP3 GT PUSH2 0x3DE JUMPI DUP2 SWAP1 PUSH2 0x1C5 PUSH1 0x1 DUP6 ADD SLOAD PUSH2 0xCC1 JUMP JUMPDEST PUSH1 0x1F DUP2 GT PUSH2 0x545 JUMPI JUMPDEST POP PUSH1 0x20 SWAP1 PUSH1 0x1F DUP4 GT PUSH1 0x1 EQ PUSH2 0x4D7 JUMPI PUSH0 SWAP3 PUSH2 0x4CC JUMPI JUMPDEST POP POP DUP2 PUSH1 0x1 SHL SWAP2 PUSH0 NOT SWAP1 PUSH1 0x3 SHL SHR NOT AND OR PUSH1 0x1 DUP3 ADD SSTORE JUMPDEST PUSH1 0x40 DUP3 ADD MLOAD PUSH1 0x2 DUP3 ADD SSTORE PUSH1 0x60 DUP3 ADD MLOAD PUSH1 0x3 DUP3 ADD SSTORE PUSH1 0x80 DUP3 ADD MLOAD PUSH1 0x4 DUP3 ADD SSTORE PUSH1 0x5 DUP2 ADD PUSH2 0xFFFF PUSH1 0xA0 DUP5 ADD MLOAD AND DUP2 SLOAD SWAP1 PUSH4 0xFFFF0000 PUSH1 0xC0 DUP7 ADD MLOAD PUSH1 0x10 SHL AND SWAP1 PUSH6 0xFFFF00000000 PUSH1 0xE0 DUP8 ADD MLOAD PUSH1 0x20 SHL AND SWAP3 PUSH6 0xFFFFFFFFFFFF NOT AND OR OR OR SWAP1 SSTORE PUSH2 0x100 DUP3 ADD MLOAD PUSH1 0x6 DUP3 ADD SSTORE PUSH2 0x120 DUP3 ADD MLOAD PUSH1 0x7 DUP3 ADD SSTORE PUSH2 0x140 DUP3 ADD MLOAD DUP1 MLOAD SWAP1 PUSH8 0xFFFFFFFFFFFFFFFF DUP3 GT PUSH2 0x3DE JUMPI DUP2 SWAP1 PUSH2 0x294 PUSH1 0x8 DUP6 ADD SLOAD PUSH2 0xCC1 JUMP JUMPDEST PUSH1 0x1F DUP2 GT PUSH2 0x47C JUMPI JUMPDEST POP PUSH1 0x20 SWAP1 PUSH1 0x1F DUP4 GT PUSH1 0x1 EQ PUSH2 0x411 JUMPI PUSH0 SWAP3 PUSH2 0x406 JUMPI JUMPDEST POP POP DUP2 PUSH1 0x1 SHL SWAP2 PUSH0 NOT SWAP1 PUSH1 0x3 SHL SHR NOT AND OR PUSH1 0x8 DUP3 ADD SSTORE JUMPDEST PUSH2 0x160 DUP3 ADD MLOAD SWAP1 PUSH1 0x5 DUP3 LT ISZERO PUSH2 0x3F2 JUMPI PUSH2 0x2E9 PUSH1 0xB SWAP3 PUSH1 0x9 DUP4 ADD PUSH2 0xDE7 JUMP JUMPDEST PUSH2 0x180 DUP4 ADD MLOAD PUSH1 0xA DUP3 ADD SSTORE ADD SWAP1 PUSH2 0x1A0 PUSH1 0x1 DUP1 PUSH1 0xA0 SHL SUB SWAP2 ADD MLOAD AND PUSH12 0xFFFFFFFFFFFFFFFFFFFFFFFF PUSH1 0xA0 SHL DUP3 SLOAD AND OR SWAP1 SSTORE PUSH2 0x325 CALLDATASIZE DUP4 DUP4 PUSH2 0xBE7 JUMP JUMPDEST PUSH1 0x20 DUP2 MLOAD SWAP2 ADD KECCAK256 PUSH0 MSTORE PUSH1 0x2 PUSH1 0x20 MSTORE PUSH1 0x40 PUSH0 KECCAK256 SWAP2 DUP3 SLOAD PUSH9 0x10000000000000000 DUP2 LT ISZERO PUSH2 0x3DE JUMPI PUSH1 0x1 DUP2 ADD DUP1 DUP6 SSTORE DUP2 LT ISZERO PUSH2 0x3CA JUMPI PUSH1 0x20 SWAP9 DUP9 SWAP6 DUP7 PUSH2 0x3BF SWAP4 PUSH32 0x1030BDB9FC309AF7D6A0DD29C97534F946DA088D34A4FB695A855BD9123D379E SWAP8 PUSH0 MSTORE DUP13 PUSH0 KECCAK256 ADD SSTORE PUSH2 0xFFFF PUSH2 0x3A6 PUSH1 0x40 MLOAD SWAP7 DUP8 SWAP7 PUSH1 0x60 DUP9 MSTORE PUSH1 0x60 DUP9 ADD SWAP2 PUSH2 0xDFF JUMP JUMPDEST SWAP3 AND DUP12 DUP6 ADD MSTORE DUP4 DUP3 SUB PUSH1 0x40 DUP6 ADD MSTORE CALLDATALOAD SWAP8 PUSH1 0x24 CALLDATALOAD SWAP8 PUSH2 0xDFF JUMP JUMPDEST SUB SWAP1 LOG4 PUSH1 0x40 MLOAD SWAP1 DUP2 MSTORE RETURN JUMPDEST PUSH4 0x4E487B71 PUSH1 0xE0 SHL PUSH0 MSTORE PUSH1 0x32 PUSH1 0x4 MSTORE PUSH1 0x24 PUSH0 REVERT JUMPDEST PUSH4 0x4E487B71 PUSH1 0xE0 SHL PUSH0 MSTORE PUSH1 0x41 PUSH1 0x4 MSTORE PUSH1 0x24 PUSH0 REVERT JUMPDEST PUSH4 0x4E487B71 PUSH1 0xE0 SHL PUSH0 MSTORE PUSH1 0x21 PUSH1 0x4 MSTORE PUSH1 0x24 PUSH0 REVERT JUMPDEST ADD MLOAD SWAP1 POP PUSH0 DUP1 PUSH2 0x2B3 JUMP JUMPDEST PUSH1 0x8 DUP6 ADD PUSH0 SWAP1 DUP2 MSTORE PUSH1 0x20 DUP2 KECCAK256 SWAP4 POP PUSH1 0x1F NOT DUP6 AND SWAP1 JUMPDEST DUP2 DUP2 LT PUSH2 0x464 JUMPI POP SWAP1 DUP5 PUSH1 0x1 SWAP6 SWAP5 SWAP4 SWAP3 LT PUSH2 0x44C JUMPI JUMPDEST POP POP POP DUP2 SHL ADD PUSH1 0x8 DUP3 ADD SSTORE PUSH2 0x2CA JUMP JUMPDEST ADD MLOAD PUSH0 NOT PUSH1 0xF8 DUP5 PUSH1 0x3 SHL AND SHR NOT AND SWAP1 SSTORE PUSH0 DUP1 DUP1 PUSH2 0x43C JUMP JUMPDEST SWAP3 SWAP4 PUSH1 0x20 PUSH1 0x1 DUP2 SWAP3 DUP8 DUP7 ADD MLOAD DUP2 SSTORE ADD SWAP6 ADD SWAP4 ADD PUSH2 0x426 JUMP JUMPDEST SWAP1 SWAP2 POP PUSH1 0x8 DUP5 ADD PUSH0 MSTORE PUSH1 0x20 PUSH0 KECCAK256 PUSH1 0x1F DUP5 ADD PUSH1 0x5 SHR DUP2 ADD PUSH1 0x20 DUP6 LT PUSH2 0x4C5 JUMPI JUMPDEST SWAP1 DUP5 SWAP4 SWAP3 SWAP2 JUMPDEST PUSH1 0x1F DUP4 ADD PUSH1 0x5 SHR DUP3 ADD DUP2 LT PUSH2 0x4B7 JUMPI POP POP PUSH2 0x29D JUMP JUMPDEST PUSH0 DUP2 SSTORE DUP6 SWAP5 POP PUSH1 0x1 ADD PUSH2 0x4A1 JUMP JUMPDEST POP DUP1 PUSH2 0x49B JUMP JUMPDEST ADD MLOAD SWAP1 POP PUSH0 DUP1 PUSH2 0x1E4 JUMP JUMPDEST SWAP3 POP PUSH1 0x1 DUP5 ADD PUSH0 MSTORE PUSH1 0x20 PUSH0 KECCAK256 SWAP1 PUSH0 SWAP4 JUMPDEST PUSH1 0x1F NOT DUP5 AND DUP6 LT PUSH2 0x52A JUMPI PUSH1 0x1 SWAP5 POP DUP4 PUSH1 0x1F NOT DUP2 AND LT PUSH2 0x512 JUMPI JUMPDEST POP POP POP DUP2 SHL ADD PUSH1 0x1 DUP3 ADD SSTORE PUSH2 0x1FB JUMP JUMPDEST ADD MLOAD PUSH0 NOT PUSH1 0xF8 DUP5 PUSH1 0x3 SHL AND SHR NOT AND SWAP1 SSTORE PUSH0 DUP1 DUP1 PUSH2 0x502 JUMP JUMPDEST DUP2 DUP2 ADD MLOAD DUP4 SSTORE PUSH1 0x20 SWAP5 DUP6 ADD SWAP5 PUSH1 0x1 SWAP1 SWAP4 ADD SWAP3 SWAP1 SWAP2 ADD SWAP1 PUSH2 0x4E7 JUMP JUMPDEST SWAP1 SWAP2 POP PUSH1 0x1 DUP5 ADD PUSH0 MSTORE PUSH1 0x20 PUSH0 KECCAK256 PUSH1 0x1F DUP5 ADD PUSH1 0x5 SHR DUP2 ADD PUSH1 0x20 DUP6 LT PUSH2 0x58E JUMPI JUMPDEST SWAP1 DUP5 SWAP4 SWAP3 SWAP2 JUMPDEST PUSH1 0x1F DUP4 ADD PUSH1 0x5 SHR DUP3 ADD DUP2 LT PUSH2 0x580 JUMPI POP POP PUSH2 0x1CE JUMP JUMPDEST PUSH0 DUP2 SSTORE DUP6 SWAP5 POP PUSH1 0x1 ADD PUSH2 0x56A JUMP JUMPDEST POP DUP1 PUSH2 0x564 JUMP JUMPDEST PUSH4 0x4E487B71 PUSH1 0xE0 SHL PUSH0 MSTORE PUSH1 0x11 PUSH1 0x4 MSTORE PUSH1 0x24 PUSH0 REVERT JUMPDEST PUSH1 0x40 MLOAD PUSH3 0x461BCD PUSH1 0xE5 SHL DUP2 MSTORE PUSH1 0x20 PUSH1 0x4 DUP3 ADD MSTORE PUSH1 0x16 PUSH1 0x24 DUP3 ADD MSTORE PUSH22 0x4241445F4D41524B45545F50524F424142494C495459 PUSH1 0x50 SHL PUSH1 0x44 DUP3 ADD MSTORE DUP5 SWAP1 REVERT JUMPDEST PUSH1 0x40 MLOAD PUSH3 0x461BCD PUSH1 0xE5 SHL DUP2 MSTORE PUSH1 0x20 PUSH1 0x4 DUP3 ADD MSTORE PUSH1 0x15 PUSH1 0x24 DUP3 ADD MSTORE PUSH21 0x4241445F4147454E545F50524F424142494C495459 PUSH1 0x58 SHL PUSH1 0x44 DUP3 ADD MSTORE DUP5 SWAP1 REVERT JUMPDEST PUSH1 0x40 MLOAD PUSH3 0x461BCD PUSH1 0xE5 SHL DUP2 MSTORE PUSH1 0x20 PUSH1 0x4 DUP3 ADD MSTORE PUSH1 0x13 PUSH1 0x24 DUP3 ADD MSTORE PUSH19 0x4241445F494E544547524954595F53434F5245 PUSH1 0x68 SHL PUSH1 0x44 DUP3 ADD MSTORE DUP5 SWAP1 REVERT JUMPDEST PUSH1 0x40 MLOAD PUSH3 0x461BCD PUSH1 0xE5 SHL DUP2 MSTORE PUSH1 0x20 PUSH1 0x4 DUP3 ADD MSTORE PUSH1 0xE PUSH1 0x24 DUP3 ADD MSTORE PUSH14 0x1051D1539517D491545552549151 PUSH1 0x92 SHL PUSH1 0x44 DUP3 ADD MSTORE DUP5 SWAP1 REVERT JUMPDEST PUSH0 DUP1 REVERT JUMPDEST CALLVALUE PUSH2 0x691 JUMPI PUSH1 0x20 DUP1 PUSH1 0x3 NOT CALLDATASIZE ADD SLT PUSH2 0x691 JUMPI PUSH1 0x4 CALLDATALOAD PUSH2 0x6B2 PUSH2 0xC45 JUMP JUMPDEST POP DUP1 PUSH0 MSTORE PUSH1 0x1 DUP3 MSTORE PUSH2 0x6CC PUSH1 0xA PUSH1 0x40 PUSH0 KECCAK256 ADD SLOAD ISZERO ISZERO PUSH2 0xDA7 JUMP JUMPDEST PUSH0 MSTORE PUSH1 0x1 DUP2 MSTORE PUSH1 0x40 PUSH0 KECCAK256 SWAP1 PUSH1 0x40 MLOAD SWAP2 PUSH2 0x6E4 DUP4 PUSH2 0xBA8 JUMP JUMPDEST DUP1 SLOAD DUP4 MSTORE PUSH2 0x6F4 PUSH1 0x1 DUP3 ADD PUSH2 0xCF9 JUMP JUMPDEST DUP3 DUP5 ADD MSTORE PUSH1 0x2 DUP2 ADD SLOAD PUSH1 0x40 DUP5 ADD MSTORE PUSH1 0x3 DUP2 ADD SLOAD PUSH1 0x60 DUP5 ADD MSTORE PUSH1 0x4 DUP2 ADD SLOAD PUSH1 0x80 DUP5 ADD MSTORE PUSH1 0x5 DUP2 ADD SLOAD PUSH2 0xFFFF SWAP1 DUP2 DUP2 AND PUSH1 0xA0 DUP7 ADD MSTORE DUP2 DUP2 PUSH1 0x10 SHR AND PUSH1 0xC0 DUP7 ADD MSTORE DUP4 SHR AND PUSH1 0xE0 DUP5 ADD MSTORE PUSH1 0x6 DUP2 ADD SLOAD PUSH2 0x100 DUP5 ADD MSTORE PUSH1 0x7 DUP2 ADD SLOAD PUSH2 0x120 DUP5 ADD MSTORE PUSH2 0x75C PUSH1 0x8 DUP3 ADD PUSH2 0xCF9 JUMP JUMPDEST PUSH2 0x140 DUP5 ADD MSTORE PUSH2 0x777 PUSH1 0xFF PUSH1 0x9 DUP4 ADD SLOAD AND PUSH2 0x160 DUP6 ADD PUSH2 0xD9B JUMP JUMPDEST PUSH1 0xA DUP2 ADD SLOAD PUSH2 0x180 DUP5 ADD MSTORE PUSH1 0xB ADD SLOAD PUSH1 0x1 PUSH1 0x1 PUSH1 0xA0 SHL SUB AND PUSH2 0x1A0 DUP4 ADD MSTORE PUSH1 0x40 MLOAD DUP2 DUP2 MSTORE SWAP2 DUP3 SWAP2 PUSH2 0x7AB SWAP2 SWAP1 DUP4 ADD SWAP1 PUSH2 0xAE2 JUMP JUMPDEST SUB SWAP1 RETURN JUMPDEST CALLVALUE PUSH2 0x691 JUMPI PUSH1 0x40 CALLDATASIZE PUSH1 0x3 NOT ADD SLT PUSH2 0x691 JUMPI PUSH1 0x4 CALLDATALOAD PUSH1 0x24 CALLDATALOAD PUSH1 0x5 DUP2 LT ISZERO PUSH2 0x691 JUMPI PUSH1 0x20 PUSH32 0x5793AE55A91F2E4613BFD41E271BF4378995073BFBE4CBA18BEDE561586D394 SWAP2 DUP4 PUSH0 MSTORE PUSH1 0x1 DUP3 MSTORE PUSH2 0x80C PUSH1 0xA PUSH1 0x40 PUSH0 KECCAK256 ADD SLOAD ISZERO ISZERO PUSH2 0xDA7 JUMP JUMPDEST DUP4 PUSH0 MSTORE PUSH1 0x1 DUP3 MSTORE PUSH2 0x823 DUP2 PUSH1 0x9 PUSH1 0x40 PUSH0 KECCAK256 ADD PUSH2 0xDE7 JUMP JUMPDEST PUSH2 0x830 PUSH1 0x40 MLOAD DUP1 SWAP3 PUSH2 0xAD5 JUMP JUMPDEST LOG2 STOP JUMPDEST CALLVALUE PUSH2 0x691 JUMPI PUSH1 0x20 SWAP1 DUP2 PUSH1 0x3 NOT CALLDATASIZE ADD SLT PUSH2 0x691 JUMPI PUSH1 0x4 CALLDATALOAD PUSH8 0xFFFFFFFFFFFFFFFF DUP2 GT PUSH2 0x691 JUMPI PUSH2 0x869 PUSH2 0x870 SWAP2 CALLDATASIZE SWAP1 PUSH1 0x4 ADD PUSH2 0xA69 JUMP JUMPDEST CALLDATASIZE SWAP2 PUSH2 0xBE7 JUMP JUMPDEST DUP3 DUP2 MLOAD SWAP2 ADD KECCAK256 PUSH0 MSTORE PUSH1 0x2 SWAP1 PUSH1 0x2 DUP4 MSTORE PUSH1 0x40 PUSH0 KECCAK256 SWAP2 PUSH1 0x40 MLOAD DUP1 DUP5 DUP7 DUP3 SWAP7 SLOAD SWAP4 DUP5 DUP2 MSTORE ADD SWAP1 PUSH0 MSTORE DUP7 PUSH0 KECCAK256 SWAP3 PUSH0 JUMPDEST DUP9 DUP3 DUP3 LT PUSH2 0xA53 JUMPI POP POP POP PUSH2 0x8B2 SWAP3 POP SUB DUP5 PUSH2 0xBC5 JUMP JUMPDEST DUP3 MLOAD SWAP2 PUSH2 0x8D7 PUSH2 0x8C1 DUP5 PUSH2 0xC2D JUMP JUMPDEST SWAP4 PUSH2 0x8CF PUSH1 0x40 MLOAD SWAP6 DUP7 PUSH2 0xBC5 JUMP JUMPDEST DUP1 DUP6 MSTORE PUSH2 0xC2D JUMP JUMPDEST PUSH1 0x1F NOT ADD DUP6 PUSH0 JUMPDEST DUP3 DUP2 LT PUSH2 0xA3D JUMPI POP POP POP PUSH0 JUMPDEST DUP5 MLOAD DUP2 LT ISZERO PUSH2 0x9E0 JUMPI DUP1 PUSH2 0x900 PUSH1 0x1 SWAP3 DUP8 PUSH2 0xCAD JUMP JUMPDEST MLOAD PUSH0 MSTORE DUP2 DUP1 DUP9 MSTORE PUSH1 0x40 PUSH0 KECCAK256 PUSH2 0x926 PUSH1 0x40 MLOAD SWAP3 PUSH2 0x91B DUP5 PUSH2 0xBA8 JUMP JUMPDEST DUP3 SLOAD DUP5 MSTORE DUP3 ADD PUSH2 0xCF9 JUMP JUMPDEST DUP10 DUP4 ADD MSTORE DUP6 DUP2 ADD SLOAD PUSH1 0x40 DUP4 ADD MSTORE PUSH1 0x3 DUP2 ADD SLOAD PUSH1 0x60 DUP4 ADD MSTORE PUSH1 0x4 DUP2 ADD SLOAD PUSH1 0x80 DUP4 ADD MSTORE PUSH1 0x5 DUP2 ADD SLOAD PUSH2 0xFFFF SWAP1 DUP2 DUP2 AND PUSH1 0xA0 DUP6 ADD MSTORE DUP2 DUP2 PUSH1 0x10 SHR AND PUSH1 0xC0 DUP6 ADD MSTORE DUP11 SHR AND DUP6 DUP4 ADD MSTORE PUSH1 0x6 DUP2 ADD SLOAD PUSH2 0x100 DUP4 ADD MSTORE PUSH1 0x7 DUP2 ADD SLOAD PUSH2 0x120 DUP4 ADD MSTORE PUSH2 0x98C PUSH1 0x8 DUP3 ADD PUSH2 0xCF9 JUMP JUMPDEST PUSH2 0x140 DUP4 ADD MSTORE PUSH2 0x9A7 PUSH1 0xFF PUSH1 0x9 DUP4 ADD SLOAD AND PUSH2 0x160 DUP5 ADD PUSH2 0xD9B JUMP JUMPDEST PUSH1 0xA DUP2 ADD SLOAD PUSH2 0x180 DUP4 ADD MSTORE PUSH1 0xB DUP5 DUP1 PUSH1 0xA0 SHL SUB SWAP2 ADD SLOAD AND PUSH2 0x1A0 DUP3 ADD MSTORE PUSH2 0x9CE DUP3 DUP8 PUSH2 0xCAD JUMP JUMPDEST MSTORE PUSH2 0x9D9 DUP2 DUP7 PUSH2 0xCAD JUMP JUMPDEST POP ADD PUSH2 0x8EA JUMP JUMPDEST PUSH1 0x40 DUP1 MLOAD DUP8 DUP2 MSTORE DUP6 MLOAD DUP2 DUP10 ADD DUP2 SWAP1 MSTORE PUSH0 SWAP3 PUSH1 0x5 DUP3 SWAP1 SHL DUP4 ADD DUP2 ADD SWAP2 DUP9 DUP12 ADD SWAP2 DUP12 SWAP1 DUP6 ADD JUMPDEST DUP3 DUP8 LT PUSH2 0xA11 JUMPI DUP6 DUP6 SUB DUP7 RETURN JUMPDEST SWAP1 SWAP2 SWAP3 SWAP4 DUP3 DUP1 PUSH2 0xA2D PUSH1 0x1 SWAP4 PUSH1 0x3F NOT DUP11 DUP3 SUB ADD DUP7 MSTORE DUP9 MLOAD PUSH2 0xAE2 JUMP JUMPDEST SWAP7 ADD SWAP3 ADD SWAP7 ADD SWAP6 SWAP3 SWAP2 SWAP1 SWAP3 PUSH2 0xA04 JUMP JUMPDEST PUSH2 0xA45 PUSH2 0xC45 JUMP JUMPDEST DUP3 DUP3 DUP9 ADD ADD MSTORE ADD DUP7 SWAP1 PUSH2 0x8DE JUMP JUMPDEST DUP6 SLOAD DUP5 MSTORE PUSH1 0x1 SWAP6 DUP7 ADD SWAP6 DUP10 SWAP6 POP SWAP4 ADD SWAP3 ADD PUSH2 0x89B JUMP JUMPDEST SWAP2 DUP2 PUSH1 0x1F DUP5 ADD SLT ISZERO PUSH2 0x691 JUMPI DUP3 CALLDATALOAD SWAP2 PUSH8 0xFFFFFFFFFFFFFFFF DUP4 GT PUSH2 0x691 JUMPI PUSH1 0x20 DUP4 DUP2 DUP7 ADD SWAP6 ADD ADD GT PUSH2 0x691 JUMPI JUMP JUMPDEST SWAP2 SWAP1 DUP3 MLOAD SWAP3 DUP4 DUP3 MSTORE PUSH0 JUMPDEST DUP5 DUP2 LT PUSH2 0xAC1 JUMPI POP POP DUP3 PUSH0 PUSH1 0x20 DUP1 SWAP5 SWAP6 DUP5 ADD ADD MSTORE PUSH1 0x1F DUP1 NOT SWAP2 ADD AND ADD ADD SWAP1 JUMP JUMPDEST PUSH1 0x20 DUP2 DUP4 ADD DUP2 ADD MLOAD DUP5 DUP4 ADD DUP3 ADD MSTORE ADD PUSH2 0xAA1 JUMP JUMPDEST SWAP1 PUSH1 0x5 DUP3 LT ISZERO PUSH2 0x3F2 JUMPI MSTORE JUMP JUMPDEST SWAP1 PUSH2 0xB73 PUSH2 0xB04 PUSH2 0x1C0 DUP5 MLOAD DUP5 MSTORE PUSH1 0x20 DUP6 ADD MLOAD SWAP1 DUP1 PUSH1 0x20 DUP7 ADD MSTORE DUP5 ADD SWAP1 PUSH2 0xA97 JUMP JUMPDEST PUSH1 0x40 DUP5 ADD MLOAD PUSH1 0x40 DUP5 ADD MSTORE PUSH1 0x60 DUP5 ADD MLOAD PUSH1 0x60 DUP5 ADD MSTORE PUSH1 0x80 DUP5 ADD MLOAD PUSH1 0x80 DUP5 ADD MSTORE PUSH1 0xA0 DUP5 ADD MLOAD PUSH2 0xFFFF DUP1 SWAP2 AND PUSH1 0xA0 DUP6 ADD MSTORE DUP1 PUSH1 0xC0 DUP7 ADD MLOAD AND PUSH1 0xC0 DUP6 ADD MSTORE PUSH1 0xE0 DUP6 ADD MLOAD AND PUSH1 0xE0 DUP5 ADD MSTORE PUSH2 0x100 DUP1 DUP6 ADD MLOAD SWAP1 DUP5 ADD MSTORE PUSH2 0x120 DUP1 DUP6 ADD MLOAD SWAP1 DUP5 ADD MSTORE PUSH2 0x140 DUP1 DUP6 ADD MLOAD SWAP1 DUP5 DUP4 SUB SWAP1 DUP6 ADD MSTORE PUSH2 0xA97 JUMP JUMPDEST SWAP2 PUSH2 0xB87 PUSH2 0x160 DUP1 DUP4 ADD MLOAD SWAP1 DUP5 ADD SWAP1 PUSH2 0xAD5 JUMP JUMPDEST PUSH2 0x180 DUP2 DUP2 ADD MLOAD SWAP1 DUP4 ADD MSTORE PUSH2 0x1A0 SWAP1 DUP2 ADD MLOAD PUSH1 0x1 PUSH1 0x1 PUSH1 0xA0 SHL SUB AND SWAP2 ADD MSTORE SWAP1 JUMP JUMPDEST PUSH2 0x1C0 DUP2 ADD SWAP1 DUP2 LT PUSH8 0xFFFFFFFFFFFFFFFF DUP3 GT OR PUSH2 0x3DE JUMPI PUSH1 0x40 MSTORE JUMP JUMPDEST SWAP1 PUSH1 0x1F DUP1 NOT SWAP2 ADD AND DUP2 ADD SWAP1 DUP2 LT PUSH8 0xFFFFFFFFFFFFFFFF DUP3 GT OR PUSH2 0x3DE JUMPI PUSH1 0x40 MSTORE JUMP JUMPDEST SWAP3 SWAP2 SWAP3 PUSH8 0xFFFFFFFFFFFFFFFF DUP3 GT PUSH2 0x3DE JUMPI PUSH1 0x40 MLOAD SWAP2 PUSH2 0xC11 PUSH1 0x1F DUP3 ADD PUSH1 0x1F NOT AND PUSH1 0x20 ADD DUP5 PUSH2 0xBC5 JUMP JUMPDEST DUP3 SWAP5 DUP2 DUP5 MSTORE DUP2 DUP4 ADD GT PUSH2 0x691 JUMPI DUP3 DUP2 PUSH1 0x20 SWAP4 DUP5 PUSH0 SWAP7 ADD CALLDATACOPY ADD ADD MSTORE JUMP JUMPDEST PUSH8 0xFFFFFFFFFFFFFFFF DUP2 GT PUSH2 0x3DE JUMPI PUSH1 0x5 SHL PUSH1 0x20 ADD SWAP1 JUMP JUMPDEST PUSH1 0x40 MLOAD SWAP1 PUSH2 0xC52 DUP3 PUSH2 0xBA8 JUMP JUMPDEST PUSH0 PUSH2 0x1A0 DUP4 DUP3 DUP2 MSTORE PUSH1 0x60 PUSH1 0x20 DUP3 ADD MSTORE DUP3 PUSH1 0x40 DUP3 ADD MSTORE DUP3 PUSH1 0x60 DUP3 ADD MSTORE DUP3 PUSH1 0x80 DUP3 ADD MSTORE DUP3 PUSH1 0xA0 DUP3 ADD MSTORE DUP3 PUSH1 0xC0 DUP3 ADD MSTORE DUP3 PUSH1 0xE0 DUP3 ADD MSTORE DUP3 PUSH2 0x100 DUP3 ADD MSTORE DUP3 PUSH2 0x120 DUP3 ADD MSTORE PUSH1 0x60 PUSH2 0x140 DUP3 ADD MSTORE DUP3 PUSH2 0x160 DUP3 ADD MSTORE DUP3 PUSH2 0x180 DUP3 ADD MSTORE ADD MSTORE JUMP JUMPDEST DUP1 MLOAD DUP3 LT ISZERO PUSH2 0x3CA JUMPI PUSH1 0x20 SWAP2 PUSH1 0x5 SHL ADD ADD SWAP1 JUMP JUMPDEST SWAP1 PUSH1 0x1 DUP3 DUP2 SHR SWAP3 AND DUP1 ISZERO PUSH2 0xCEF JUMPI JUMPDEST PUSH1 0x20 DUP4 LT EQ PUSH2 0xCDB JUMPI JUMP JUMPDEST PUSH4 0x4E487B71 PUSH1 0xE0 SHL PUSH0 MSTORE PUSH1 0x22 PUSH1 0x4 MSTORE PUSH1 0x24 PUSH0 REVERT JUMPDEST SWAP2 PUSH1 0x7F AND SWAP2 PUSH2 0xCD0 JUMP JUMPDEST SWAP1 PUSH1 0x40 MLOAD SWAP2 DUP3 PUSH0 DUP3 SLOAD PUSH2 0xD0B DUP2 PUSH2 0xCC1 JUMP JUMPDEST SWAP1 DUP2 DUP5 MSTORE PUSH1 0x20 SWAP5 PUSH1 0x1 SWAP2 PUSH1 0x1 DUP2 AND SWAP1 DUP2 PUSH0 EQ PUSH2 0xD79 JUMPI POP PUSH1 0x1 EQ PUSH2 0xD3B JUMPI JUMPDEST POP POP POP PUSH2 0xD39 SWAP3 POP SUB DUP4 PUSH2 0xBC5 JUMP JUMPDEST JUMP JUMPDEST PUSH0 SWAP1 DUP2 MSTORE DUP6 DUP2 KECCAK256 SWAP6 SWAP4 POP SWAP2 SWAP1 JUMPDEST DUP2 DUP4 LT PUSH2 0xD61 JUMPI POP POP PUSH2 0xD39 SWAP4 POP DUP3 ADD ADD PUSH0 DUP1 DUP1 PUSH2 0xD2A JUMP JUMPDEST DUP6 SLOAD DUP9 DUP5 ADD DUP6 ADD MSTORE SWAP5 DUP6 ADD SWAP5 DUP8 SWAP5 POP SWAP2 DUP4 ADD SWAP2 PUSH2 0xD48 JUMP JUMPDEST SWAP3 POP POP POP PUSH2 0xD39 SWAP5 SWAP3 POP PUSH1 0xFF NOT AND DUP3 DUP5 ADD MSTORE ISZERO ISZERO PUSH1 0x5 SHL DUP3 ADD ADD PUSH0 DUP1 DUP1 PUSH2 0xD2A JUMP JUMPDEST PUSH1 0x5 DUP3 LT ISZERO PUSH2 0x3F2 JUMPI MSTORE JUMP JUMPDEST ISZERO PUSH2 0xDAE JUMPI JUMP JUMPDEST PUSH1 0x40 MLOAD PUSH3 0x461BCD PUSH1 0xE5 SHL DUP2 MSTORE PUSH1 0x20 PUSH1 0x4 DUP3 ADD MSTORE PUSH1 0x11 PUSH1 0x24 DUP3 ADD MSTORE PUSH17 0x149150D152541517D393D517D193D55391 PUSH1 0x7A SHL PUSH1 0x44 DUP3 ADD MSTORE PUSH1 0x64 SWAP1 REVERT JUMPDEST SWAP1 PUSH1 0x5 DUP2 LT ISZERO PUSH2 0x3F2 JUMPI PUSH1 0xFF DUP1 NOT DUP4 SLOAD AND SWAP2 AND OR SWAP1 SSTORE JUMP JUMPDEST SWAP1 DUP1 PUSH1 0x20 SWAP4 SWAP3 DUP2 DUP5 MSTORE DUP5 DUP5 ADD CALLDATACOPY PUSH0 DUP3 DUP3 ADD DUP5 ADD MSTORE PUSH1 0x1F ADD PUSH1 0x1F NOT AND ADD ADD SWAP1 JUMP INVALID LOG2 PUSH5 0x6970667358 0x22 SLT KECCAK256 0xAE RETURNDATACOPY INVALID 0xAE RETURN 0xEE 0xBF 0xB0 0xD0 MSTORE 0xB8 PUSH9 0xF8E320249F4BA851A4 PUSH24 0xF87CD99FA1B8406D4FA64736F6C63430008180033000000 "},"methodIdentifiers":{"getReceipt(uint256)":"b63e6ac3","getReceiptsByAgent(string)":"31a294ee","updateLifecycleState(uint256,uint8)":"5f4d654c","writeReceipt(string,uint256,bytes32,bytes32,uint16,uint16,uint16,int256,uint256,string)":"dbfbc8e9"}}}}}