{
  "_format": "hh3-artifact-1",
  "contractName": "ReasoningReceiptRegistry",
  "sourceName": "contracts/ReasoningReceiptRegistry.sol",
  "abi": [
    {
      "anonymous": false,
      "inputs": [
        {
          "indexed": true,
          "internalType": "uint256",
          "name": "receiptId",
          "type": "uint256"
        },
        {
          "indexed": false,
          "internalType": "enum ReasoningReceiptRegistry.LifecycleState",
          "name": "lifecycleState",
          "type": "uint8"
        }
      ],
      "name": "LifecycleUpdated",
      "type": "event"
    },
    {
      "anonymous": false,
      "inputs": [
        {
          "indexed": true,
          "internalType": "uint256",
          "name": "receiptId",
          "type": "uint256"
        },
        {
          "indexed": false,
          "internalType": "string",
          "name": "agentId",
          "type": "string"
        },
        {
          "indexed": true,
          "internalType": "uint256",
          "name": "marketId",
          "type": "uint256"
        },
        {
          "indexed": true,
          "internalType": "bytes32",
          "name": "reasoningHash",
          "type": "bytes32"
        },
        {
          "indexed": false,
          "internalType": "uint16",
          "name": "integrityScore",
          "type": "uint16"
        },
        {
          "indexed": false,
          "internalType": "string",
          "name": "decision",
          "type": "string"
        }
      ],
      "name": "ReceiptWritten",
      "type": "event"
    },
    {
      "inputs": [
        {
          "internalType": "uint256",
          "name": "receiptId",
          "type": "uint256"
        }
      ],
      "name": "getReceipt",
      "outputs": [
        {
          "components": [
            {
              "internalType": "uint256",
              "name": "receiptId",
              "type": "uint256"
            },
            {
              "internalType": "string",
              "name": "agentId",
              "type": "string"
            },
            {
              "internalType": "uint256",
              "name": "marketId",
              "type": "uint256"
            },
            {
              "internalType": "bytes32",
              "name": "signalHash",
              "type": "bytes32"
            },
            {
              "internalType": "bytes32",
              "name": "reasoningHash",
              "type": "bytes32"
            },
            {
              "internalType": "uint16",
              "name": "integrityScore",
              "type": "uint16"
            },
            {
              "internalType": "uint16",
              "name": "agentProbability",
              "type": "uint16"
            },
            {
              "internalType": "uint16",
              "name": "marketProbability",
              "type": "uint16"
            },
            {
              "internalType": "int256",
              "name": "edgeBps",
              "type": "int256"
            },
            {
              "internalType": "uint256",
              "name": "suggestedUsdcAmount",
              "type": "uint256"
            },
            {
              "internalType": "string",
              "name": "decision",
              "type": "string"
            },
            {
              "internalType": "enum ReasoningReceiptRegistry.LifecycleState",
              "name": "lifecycleState",
              "type": "uint8"
            },
            {
              "internalType": "uint256",
              "name": "timestamp",
              "type": "uint256"
            },
            {
              "internalType": "address",
              "name": "writer",
              "type": "address"
            }
          ],
          "internalType": "struct ReasoningReceiptRegistry.Receipt",
          "name": "",
          "type": "tuple"
        }
      ],
      "stateMutability": "view",
      "type": "function"
    },
    {
      "inputs": [
        {
          "internalType": "string",
          "name": "agentId",
          "type": "string"
        }
      ],
      "name": "getReceiptsByAgent",
      "outputs": [
        {
          "components": [
            {
              "internalType": "uint256",
              "name": "receiptId",
              "type": "uint256"
            },
            {
              "internalType": "string",
              "name": "agentId",
              "type": "string"
            },
            {
              "internalType": "uint256",
              "name": "marketId",
              "type": "uint256"
            },
            {
              "internalType": "bytes32",
              "name": "signalHash",
              "type": "bytes32"
            },
            {
              "internalType": "bytes32",
              "name": "reasoningHash",
              "type": "bytes32"
            },
            {
              "internalType": "uint16",
              "name": "integrityScore",
              "type": "uint16"
            },
            {
              "internalType": "uint16",
              "name": "agentProbability",
              "type": "uint16"
            },
            {
              "internalType": "uint16",
              "name": "marketProbability",
              "type": "uint16"
            },
            {
              "internalType": "int256",
              "name": "edgeBps",
              "type": "int256"
            },
            {
              "internalType": "uint256",
              "name": "suggestedUsdcAmount",
              "type": "uint256"
            },
            {
              "internalType": "string",
              "name": "decision",
              "type": "string"
            },
            {
              "internalType": "enum ReasoningReceiptRegistry.LifecycleState",
              "name": "lifecycleState",
              "type": "uint8"
            },
            {
              "internalType": "uint256",
              "name": "timestamp",
              "type": "uint256"
            },
            {
              "internalType": "address",
              "name": "writer",
              "type": "address"
            }
          ],
          "internalType": "struct ReasoningReceiptRegistry.Receipt[]",
          "name": "results",
          "type": "tuple[]"
        }
      ],
      "stateMutability": "view",
      "type": "function"
    },
    {
      "inputs": [
        {
          "internalType": "uint256",
          "name": "receiptId",
          "type": "uint256"
        },
        {
          "internalType": "enum ReasoningReceiptRegistry.LifecycleState",
          "name": "lifecycleState",
          "type": "uint8"
        }
      ],
      "name": "updateLifecycleState",
      "outputs": [],
      "stateMutability": "nonpayable",
      "type": "function"
    },
    {
      "inputs": [
        {
          "internalType": "string",
          "name": "agentId",
          "type": "string"
        },
        {
          "internalType": "uint256",
          "name": "marketId",
          "type": "uint256"
        },
        {
          "internalType": "bytes32",
          "name": "signalHash",
          "type": "bytes32"
        },
        {
          "internalType": "bytes32",
          "name": "reasoningHash",
          "type": "bytes32"
        },
        {
          "internalType": "uint16",
          "name": "integrityScore",
          "type": "uint16"
        },
        {
          "internalType": "uint16",
          "name": "agentProbability",
          "type": "uint16"
        },
        {
          "internalType": "uint16",
          "name": "marketProbability",
          "type": "uint16"
        },
        {
          "internalType": "int256",
          "name": "edgeBps",
          "type": "int256"
        },
        {
          "internalType": "uint256",
          "name": "suggestedUsdcAmount",
          "type": "uint256"
        },
        {
          "internalType": "string",
          "name": "decision",
          "type": "string"
        }
      ],
      "name": "writeReceipt",
      "outputs": [
        {
          "internalType": "uint256",
          "name": "receiptId",
          "type": "uint256"
        }
      ],
      "stateMutability": "nonpayable",
      "type": "function"
    }
  ],
  "bytecode": "0x6080806040523461001a5760015f55610e55908161001f8239f35b5f80fdfe60806040526004361015610011575f80fd5b60e05f3560e01c90816331a294ee14610833575080635f4d654c146107af578063b63e6ac3146106955763dbfbc8e914610049575f80fd5b34610691576101403660031901126106915760043567ffffffffffffffff81116106915761007b903690600401610a69565b60843591606461ffff841684036106915760a4359061ffff821682036106915760c4359361ffff85168503610691576101243567ffffffffffffffff8111610691576100cb903690600401610a69565b949093821561065c578361ffff891611610622578361ffff8216116105e6578361ffff8816116105a9575f54965f1988146105955761ffff90600189015f55816040519361011885610ba8565b8a8552610126368888610be7565b60208601526024356040860152604435606086015287356080860152818c1660a08601521660c08401521660e082015260e43561010082015261010435610120820152610174368787610be7565b6101408201525f61016082015242610180820152336101a0820152865f52600160205260405f2081518155602082015180519067ffffffffffffffff82116103de5781906101c56001850154610cc1565b601f8111610545575b50602090601f83116001146104d7575f926104cc575b50508160011b915f199060031b1c19161760018201555b6040820151600282015560608201516003820155608082015160048201556005810161ffff60a08401511681549063ffff000060c086015160101b169065ffff0000000060e087015160201b169265ffffffffffff191617171790556101008201516006820155610120820151600782015561014082015180519067ffffffffffffffff82116103de5781906102946008850154610cc1565b601f811161047c575b50602090601f8311600114610411575f92610406575b50508160011b915f199060031b1c19161760088201555b6101608201519060058210156103f2576102e9600b9260098301610de7565b610180830151600a82015501906101a060018060a01b03910151166bffffffffffffffffffffffff60a01b825416179055610325368383610be7565b602081519101205f52600260205260405f20918254680100000000000000008110156103de57600181018085558110156103ca576020988895866103bf937f1030bdb9fc309af7d6a0dd29c97534f946da088d34a4fb695a855bd9123d379e975f528c5f20015561ffff6103a6604051968796606088526060880191610dff565b92168b8501528382036040850152359760243597610dff565b0390a4604051908152f35b634e487b7160e01b5f52603260045260245ffd5b634e487b7160e01b5f52604160045260245ffd5b634e487b7160e01b5f52602160045260245ffd5b015190505f806102b3565b600885015f908152602081209350601f198516905b818110610464575090846001959493921061044c575b505050811b0160088201556102ca565b01515f1960f88460031b161c191690555f808061043c565b92936020600181928786015181550195019301610426565b909150600884015f5260205f20601f840160051c8101602085106104c5575b90849392915b601f830160051c820181106104b757505061029d565b5f81558594506001016104a1565b508061049b565b015190505f806101e4565b9250600184015f5260205f20905f935b601f198416851061052a576001945083601f19811610610512575b505050811b0160018201556101fb565b01515f1960f88460031b161c191690555f8080610502565b818101518355602094850194600190930192909101906104e7565b909150600184015f5260205f20601f840160051c81016020851061058e575b90849392915b601f830160051c820181106105805750506101ce565b5f815585945060010161056a565b5080610564565b634e487b7160e01b5f52601160045260245ffd5b60405162461bcd60e51b81526020600482015260166024820152754241445f4d41524b45545f50524f424142494c49545960501b60448201528490fd5b60405162461bcd60e51b81526020600482015260156024820152744241445f4147454e545f50524f424142494c49545960581b60448201528490fd5b60405162461bcd60e51b81526020600482015260136024820152724241445f494e544547524954595f53434f524560681b60448201528490fd5b60405162461bcd60e51b815260206004820152600e60248201526d1051d1539517d49154555254915160921b60448201528490fd5b5f80fd5b3461069157602080600319360112610691576004356106b2610c45565b50805f52600182526106cc600a60405f2001541515610da7565b5f526001815260405f2090604051916106e483610ba8565b805483526106f460018201610cf9565b82840152600281015460408401526003810154606084015260048101546080840152600581015461ffff9081811660a0860152818160101c1660c0860152831c1660e08401526006810154610100840152600781015461012084015261075c60088201610cf9565b61014084015261077760ff6009830154166101608501610d9b565b600a810154610180840152600b01546001600160a01b03166101a08301526040518181529182916107ab9190830190610ae2565b0390f35b346106915760403660031901126106915760043560243560058110156106915760207f05793ae55a91f2e4613bfd41e271bf4378995073bfbe4cba18bede561586d39491835f526001825261080c600a60405f2001541515610da7565b835f526001825261082381600960405f2001610de7565b6108306040518092610ad5565ba2005b3461069157602090816003193601126106915760043567ffffffffffffffff811161069157610869610870913690600401610a69565b3691610be7565b8281519101205f526002906002835260405f20916040518084868296549384815201905f52865f20925f5b88828210610a53575050506108b292500384610bc5565b8251916108d76108c184610c2d565b936108cf6040519586610bc5565b808552610c2d565b601f1901855f5b828110610a3d575050505f5b84518110156109e0578061090060019287610cad565b515f528180885260405f206109266040519261091b84610ba8565b825484528201610cf9565b898301528581015460408301526003810154606083015260048101546080830152600581015461ffff9081811660a0850152818160101c1660c08501528a1c16858301526006810154610100830152600781015461012083015261098c60088201610cf9565b6101408301526109a760ff6009830154166101608401610d9b565b600a810154610180830152600b848060a01b03910154166101a08201526109ce8287610cad565b526109d98186610cad565b50016108ea565b6040805187815285518189018190525f92600582901b8301810191888b01918b9085015b828710610a115785850386f35b909192938280610a2d600193603f198a82030186528851610ae2565b9601920196019592919092610a04565b610a45610c45565b8282880101520186906108de565b855484526001958601958995509301920161089b565b9181601f840112156106915782359167ffffffffffffffff8311610691576020838186019501011161069157565b91908251928382525f5b848110610ac1575050825f602080949584010152601f8019910116010190565b602081830181015184830182015201610aa1565b9060058210156103f25752565b90610b73610b046101c084518452602085015190806020860152840190610a97565b60408401516040840152606084015160608401526080840151608084015260a084015161ffff80911660a08501528060c08601511660c085015260e08501511660e084015261010080850151908401526101208085015190840152610140808501519084830390850152610a97565b91610b876101608083015190840190610ad5565b61018081810151908301526101a0908101516001600160a01b031691015290565b6101c0810190811067ffffffffffffffff8211176103de57604052565b90601f8019910116810190811067ffffffffffffffff8211176103de57604052565b92919267ffffffffffffffff82116103de5760405191610c11601f8201601f191660200184610bc5565b829481845281830111610691578281602093845f960137010152565b67ffffffffffffffff81116103de5760051b60200190565b60405190610c5282610ba8565b5f6101a083828152606060208201528260408201528260608201528260808201528260a08201528260c08201528260e08201528261010082015282610120820152606061014082015282610160820152826101808201520152565b80518210156103ca5760209160051b010190565b90600182811c92168015610cef575b6020831014610cdb57565b634e487b7160e01b5f52602260045260245ffd5b91607f1691610cd0565b9060405191825f8254610d0b81610cc1565b908184526020946001916001811690815f14610d795750600114610d3b575b505050610d3992500383610bc5565b565b5f90815285812095935091905b818310610d61575050610d3993508201015f8080610d2a565b85548884018501529485019487945091830191610d48565b92505050610d3994925060ff191682840152151560051b8201015f8080610d2a565b60058210156103f25752565b15610dae57565b60405162461bcd60e51b8152602060048201526011602482015270149150d152541517d393d517d193d55391607a1b6044820152606490fd5b9060058110156103f25760ff80198354169116179055565b908060209392818452848401375f828201840152601f01601f191601019056fea2646970667358221220ae3efeaef3eebfb0d052b868f8e320249f4ba851a4770f87cd99fa1b8406d4fa64736f6c63430008180033",
  "linkReferences": {},
  "deployedLinkReferences": {},
  "immutableReferences": {},
  "inputSourceName": "project/contracts/ReasoningReceiptRegistry.sol",
  "buildInfoId": "solc-0_8_24-e91bae425ac3626a7886f7b9f2a9dc57f8011bf3"
}